:100000000C94D7000C94E9000C94E9000C94E900DE
:100010000C94E9000C94E9000C94E9000C94E900BC
:100020000C94E9000C94E9000C94E9000C94E900AC
:100030000C94E9000C94E9000C94E9000C94E9009C
:100040000C94E9000C9415020C94E9000C94E9005E
:100050000C94E9000C94FC000C94E9000C94E90069
:100060000C94E9000C94E9000C94E9000C94E9006C
:100070000C94E9000C94E9000C94E9000C94E9005C
:100080000C94BD010C94E9000C94E9000C94E90077
:100090000C94E9000C94E9000C94E9000C94E9003C
:1000A0000C94E9000C94E9000C94E9006E616E0078
:1000B000696E660000407A10F35A00A0724E18096B
:1000C0000010A5D4E80000E87648170000E40B54BF
:1000D000020000CA9A3B000000E1F505000080968E
:1000E0009800000040420F000000A08601000000C0
:1000F000102700000000E80300000000640000007A
:1001000000000A00000000000100000000002C7642
:10011000D888DC674F0823DFC1DFAE59E1B1B7965D
:10012000E5E3E453C63AE651997696E8E6C28426BA
:10013000EB898C9B62ED407C6FFCEFBC9C9F40F296
:10014000BAA56FA5F490055A2AF75C936B6CF96712
:100150006DC11BFCE0E40D47FEF520E6B500D0EDD7
:10016000902E0300943577050080841E080000203F
:100170004E0A000000C80C333333330F986E1283DD
:100180001141EF8D2114893BE65516CFFEE6DB18B1
:10019000D1844B381BF77C1D901DA4BBE424203276
:1001A00084725E228100C9F124ECA1E53D2711246F
:1001B0001FBECFEFDAE0DEBFCDBF11E0A0E0B1E0BF
:1001C00001C01D92A433B107E1F70E9438010C94DD
:1001D000690D0C94000082E084BD93E095BD9AEF18
:1001E00097BD80936E001092000110920101109251
:1001F00002011092030108951F920F920FB60F9201
:1002000011242F933F934F935F936F937F938F931B
:100210009F93AF93BF93EF93FF93809100019091D1
:100220000101A0910201B09103010196A11DB11D30
:100230008093000190930101A0930201B093030108
:100240008BE290E064E040E050E00E94A905FF915D
:10025000EF91BF91AF919F918F917F916F915F913E
:100260004F913F912F910F900FBE0F901F901895B7
:10027000CF92DF92EF92FF920F931F930E94810122
:1002800082E084BD93E095BD9AEF97BD80936E00A8
:1002900010920001109201011092020110920301CC
:1002A0000E94A10581E090E061E070E00E94AA0256
:1002B00080E090E060E070E00E946D0281E090E0FC
:1002C0000E94A40160EA7FE080E090E040E050E01E
:1002D00020EA3FE000E010E0F0EAEF2EFFE0FF2E22
:1002E000E0EACE2EEFE0DE2E0E94D40280E090E025
:1002F00060E070E00E94AA0280E090E00E94A40109
:10030000FFCF8AB18E608AB984B1836C84B988E0EA
:100310008093810080939100109289001092880050
:10032000109299001092980082E080936F00809361
:10033000710010928B0010928A0010929B00109214
:100340009A0078942E9A0895892B11F02E9808958A
:100350002E9A0895FC01208181E090E002C0880F70
:10036000991F6A95E2F7282B20839AE19A95F1F775
:10037000208180958223808308951F920F920FB66B
:100380000F9211242F933F934F935F936F937F931B
:100390008F939F93AF93BF93EF93FF9385E290E08A
:1003A00067E00E94AA018091040190910501A0914B
:1003B0000601B09107010196A11DB11D80930401B2
:1003C00090930501A0930601B09307018091080165
:1003D00090910901A0910A01B0910B0180930C0149
:1003E00090930D01A0930E01B0930F0160910C0149
:1003F00070910D0180910E0190910F010E94380AB9
:100400007093990060939800FF91EF91BF91AF9125
:100410009F918F917F916F915F914F913F912F911C
:100420000F900FBE0F901F9018951F920F920FB64E
:100430000F9211242F933F934F935F936F937F936A
:100440008F939F93AF93BF93EF93FF938BE290E0D3
:1004500061E00E94AA0180911C0190911D01A09170
:100460001E01B0911F010196A11DB11D80931C01B9
:1004700090931D01A0931E01B0931F018091200154
:1004800090912101A0912201B09123018093240138
:1004900090932501A0932601B09327016091240138
:1004A0007091250180912601909127010E94380AC0
:1004B0007093890060938800FF91EF91BF91AF9195
:1004C0009F918F917F916F915F914F913F912F916C
:1004D0000F900FBE0F901F901895892B11F0589810
:1004E00001C0589A672B11F05E9A08955E9808959E
:1004F000CF93DF93EC01688579858A859B8520E021
:1005000030E04FE753E40E94C70918167CF0688575
:1005100079858A859B850E94330A80E090E0A0E07F
:10052000B0E088879987AA87BB8710C068857985DE
:100530008A859B8520E030E04FE753E40E94620902
:10054000688779878A879B876FEF70E0CB01DF919F
:10055000CF910895892B21F080918100836003C0A1
:10056000809181008C7F80938100672B21F08091A6
:100570009100836003C0809191008D7F80939100F2
:1005800008958A3091051CF428EA31E60BC09C01DD
:10059000442737FD4095542F60E970ED83E090E0EB
:1005A0000E947D0BC90108952F923F924F925F9256
:1005B0006F927F928F929F92AF92BF92CF92DF9273
:1005C000EF92FF920F931F93DF93CF93CDB7DEB7D8
:1005D000AC970FB6F894DEBF0FBECDBF69877A87A0
:1005E0008B879C873E872D87188B0F87DA8AC98A6D
:1005F0008091000190910101A0910201B09103014D
:100600008D839E83AF83B887CA01AA2797FDA095E3
:10061000BA2F8F8B988FA98FBA8F9701442737FDF8
:100620004095542F2B8F3C8F4D8F5E8F8D859E85EF
:10063000AA2797FDA095BA2F8F8F98A3A9A3BAA335
:100640009601442737FD4095542F2BA33CA34DA37F
:100650005EA3C801AA2797FDA095BA2F8FA398A7DC
:10066000A9A7BAA7BEC06091000170910101809155
:100670000201909103012D813E814F815885621BBB
:10068000730B840B950B0E94640A20E030E04AE76C
:1006900054E40E94CB099B01AC01C601B5010E9444
:1006A0001A0B9B01AC01C401B3010E9463093B0119
:1006B0004C010E94330A7B018C017CA76BA7CB0104
:1006C0000E94C102AA2797FDA095BA2FBC01CD01B7
:1006D0000E94660A60932001709321018093220199
:1006E00090932301C7010E94C102AA2797FDA095FC
:1006F000BA2FBC01CD010E94660A60930801709375
:10070000090180930A0190930B016BA17CA18DA13B
:100710009EA10E94660A5B016C016FA178A589A564
:100720009AA50E94660A1B012C0160911C01709120
:100730001D0180911E0190911F010E94660A6B8B22
:100740007C8B8D8B9E8BC401B301A40193010E940D
:100750001A0B7B018C01C601B501A60195010E940F
:1007600063099B01AC01C801B7010E94CB093B01A1
:100770004C01C201B101A20191010E941A0B7B013F
:100780008C01C601B50120E030E040E050EC0E9451
:100790001A0B9B01AC01C801B7010E94CB099B0158
:1007A000AC01C401B3010E9463099B01AC016B89D8
:1007B0007C898D899E890E9463097B018C016985F2
:1007C0007A858B859C850E94660A9B01AC01C801D5
:1007D000B7010E94160B87FF4CC080EA9FE001978B
:1007E000F1F76F89788D898D9A8D0E94660A3B0199
:1007F0004C016B8D7C8D8D8D9E8D0E94660A5B01F8
:100800006C01609100017091010180910201909151
:1008100003012D813E814F815885621B730B840B30
:10082000950B0E94640A20E030E04AE754E40E94FD
:10083000CB099B01AC01C601B5010E941A0B9B01BB
:10084000AC01C401B3010E9463097B018C016F8D6F
:1008500078A189A19AA10E94660A9B01AC01C801F6
:10086000B7010E94C70987FDFECE4D855E855CA756
:100870004BA7ABA5BCA5BD01882777FD8095982F18
:100880000E94660A1B012C01E989FA89BF018827A9
:1008900077FD8095982F0E94660A3B014C012F85B9
:1008A0003889B901882777FD8095982F0E94660ABC
:1008B00069837A838B839C83C201B101A201910178
:1008C0000E941A0B7B018C01C401B301A4019301A6
:1008D0000E9463099B01AC01C801B7010E94CB09CA
:1008E0005B016C0169817A818B819C819B01AC01E8
:1008F0000E941A0B7B018C01C401B30120E030E09F
:1009000040E050EC0E941A0B9B01AC01C801B701FA
:100910000E94CB099B01AC01C601B5010E9463098D
:100920005B016C0160911C0170911D0180911E01A1
:1009300090911F010E94660AA60195010E94630919
:100940007B018C0169857A858B859C850E94660A6E
:100950009B01AC01C801B7010E94C70987FDE2CF26
:10096000E0900001F090010100910201109103015B
:1009700080EAC82E8FE0D82E6FC060910001709180
:10098000010180910201909103016E197F09800B92
:10099000910B0E94640A20E030E04AE754EC0E9488
:1009A000CB099B01AC01C401B3010E941A0B9B014E
:1009B000AC01C201B1010E9463090E94330ADC014B
:1009C000CB010E94C102AA2797FDA095BA2FBC01B6
:1009D000CD010E94660A60932001709321018093EB
:1009E0002201909323016091000170910101809197
:1009F0000201909103016E197F09800B910B0E94F7
:100A0000640A20E030E04AE754EC0E94CB099B01E5
:100A1000AC01C401B3010E941A0B9B01AC01C201DD
:100A2000B1010E9463090E94330ADC01CB010E94DC
:100A3000C102AA2797FDA095BA2FBC01CD010E9443
:100A4000660A609308017093090180930A019093EC
:100A50000B01C6010197F1F760910001709101014E
:100A600080910201909103016E197F09800B910B17
:100A70000E94640A20E030E04AE754EC0E94CB096F
:100A80009B01AC01C401B3010E941A0B9B01AC0194
:100A9000C201B1010E94630929813A814B815C81C5
:100AA0000E94160B18160CF468CFAC960FB6F8948B
:100AB000DEBF0FBECDBFCF91DF911F910F91FF9091
:100AC000EF90DF90CF90BF90AF909F908F907F90EE
:100AD0006F905F904F903F902F900895AF92BF928C
:100AE000CF92DF92EF92FF920F931F93B82EA92E11
:100AF0008B017A01690180E090E061E070E00E9482
:100B00006D022B2D3A2DB90143E0660F771F4A95F0
:100B1000E1F7220F331F620F731F882777FD80953F
:100B2000982F40E050E0980100E010E00E94D402CD
:100B30001F910F91FF90EF90DF90CF90BF90AF90FB
:100B4000089580E480937C0086E880937A00549A2C
:100B50000895FC01208181E090E002C0880F991F78
:100B60006A95E2F7282B208340E451E0DA011197DF
:100B7000F1F72081809582238083CA010197F1F7E4
:100B800080E090E008958770806480937C0080917D
:100B90007A00806480937A0080917A0084FFFCCF91
:100BA00080917A00806180937A0020917800309162
:100BB0007900C9010895A1E1B0E0E1EEF5E00C94FF
:100BC000980B3C017F876E876A01FC0117821682B1
:100BD000838181FD03C06FEF7FEF6FC39E012F5FA5
:100BE0003F4F398B288BF3012381EE85FF8523FD51
:100BF000859123FF8191FF87EE87882309F45AC3EB
:100C0000853251F4EE85FF8523FD859123FF819187
:100C1000FF87EE87853229F490E0B3010E94DF0C54
:100C2000E2CF982F10E0882499241032B0F49B3240
:100C300069F09C3228F4903251F0933271F40BC079
:100C40009D3239F0903349F4116028C0126014606D
:100C500025C0186023C0106121C017FD2AC0892F4C
:100C600080538A3078F416FF06C0FAE09F9E902CDD
:100C70001124980E13C03AE0839E802C1124880E14
:100C800010620CC09E3221F416FD14C3106406C01D
:100C90009C3611F4106802C0983659F4EE85FF8531
:100CA00023FD959123FF9191FF87EE87992309F00A
:100CB000BCCF892F8554833020F4812F8061905ED2
:100CC00007C0892F8556833008F09FC1812F8F7E02
:100CD00086FD02C076E0972E6FE3F62EF822953659
:100CE00019F4F0E4FF2A07C0963619F420E8F22A36
:100CF00002C091109A94F7FE0AC03BE3391518F42C
:100D00005CE3B52E02C0B92CB39427E009C047E0DC
:100D1000491520F4BB2447E0942EF7CF292DBB249E
:100D2000C60104969D878C87F6016081718182815E
:100D30009381AE014F5F5F4F0B2D0E94F10B6C0151
:100D40000981202E332400FF04C003FD02C01DE2F0
:100D500009C0F1FE02C01BE205C0F2FC02C010E0B7
:100D600001C010E2C1018C709070892BB9F1112380
:100D700011F483E001C084E0881510F088240AC0D3
:100D8000881AF3FC07C080E290E0B3010E94DF0CF8
:100D90008A94C9F7112329F0812F90E0B3010E94B2
:100DA000DF0C23FE03C00CEA10E00EC000EB10E0E5
:100DB0000BC0E114F10409F0805290E0B3010E94ED
:100DC000DF0C0F5F1F4F05C0EF2CFF24F0E1EF2277
:100DD000FF24F8018491882361F714C1F7FE12C043
:100DE000BC0C24FE04C08A81813309F4BA941B141C
:100DF0001CF0BB24B3942DC0F8E0FB1550F538E08F
:100E0000B32E27C0F6FC25C0892D90E08C159D05DA
:100E10004CF02CEFC2162FEFD20624F030E8F32A64
:100E200001C09A94992049F0E2E0F0E0EC0FFD1F38
:100E3000E90DF11D80818033A1F3F7FE0AC0B92CC2
:100E4000B394892D90E0C816D90614F0992401C0F6
:100E50009C18F7FC03C025E030E009C01C141D04F9
:100E60001CF021E030E003C096012F5F3F4F1123BB
:100E700011F02F5F3F4F992029F0892D90E00196C6
:100E8000280F391F882D90E02817390714F088247F
:100E900001C0821A4F2C5524C20189709070892B91
:100EA00039F008C080E290E0B3010E94DF0C8A9420
:100EB0008820C1F7112329F0812F90E0B3010E940F
:100EC000DF0C43FE07C008C080E390E0B3010E943E
:100ED000DF0C8A948820C1F7F7FE46C08601D7FE52
:100EE00002C000E010E076010894E11CF11CE01A59
:100EF000F10A41E050E04C0F5D1FE40EF51E2601A3
:100F00004B185108892D90E0AA24BB24A81AB90ACD
:100F10005FEF0F3F150729F48EE290E0B3010E94C6
:100F2000DF0CC016D10634F0401651061CF4F70150
:100F3000808101C080E3015010400894E11CF11C45
:100F40000A151B052CF090E0B3010E94DF0CE0CFE6
:100F50000C151D0539F49A81963318F4953311F464
:100F600024FE81E390E04BC08A81813309F00F7E3B
:100F700090E0B3010E94DF0C9920A1F08EE290E096
:100F8000B3010E94DF0C12E0E1E0F0E0EC0FFD1F86
:100F9000E10FF11D1F5F808190E0B3010E94DF0C23
:100FA0009A9491F744FC03C085E690E002C085E482
:100FB00090E0B3010E94DF0CD7FC05C0C114D1043E
:100FC00041F404FF06C0D094C194D108D3948DE2BB
:100FD00001C08BE290E0B3010E94DF0C80E305C00A
:100FE0008F5F26EF3FEFC20ED31E3AE0C316D10447
:100FF000BCF790E0B3010E94DF0CC601C096B301BC
:101000000E94DF0CCC84DD8452C1933631F09337DB
:1010100099F0933509F059C023C0F6018081898386
:101020005E010894A11CB11C22E030E0C20ED31E68
:1010300021E0E22EF12C12C0F601A080B18016FD55
:1010400003C06FEF7FEF02C0692D70E022E030E057
:10105000C20ED31EC5010E94D40C7C011F7713C0A1
:10106000F601A080B18016FD03C06FEF7FEF02C0D4
:10107000692D70E022E030E0C20ED31EC5010E944F
:10108000C90C7C01106813FF07C01BC080E290E010
:10109000B3010E94DF0C8A94882D90E0E816F906CF
:1010A000A8F30FC0F50117FD859117FF81915F012E
:1010B00090E0B3010E94DF0C81108A940894E1084B
:1010C000F108E114F10471F7F2C0943611F0993689
:1010D00089F517FF08C0F6012081318142815381D3
:1010E00084E090E00AC0F601808191819C01442750
:1010F00037FD4095542F82E090E0C80ED91E9FE640
:10110000F92EF12257FF09C0509540953095219551
:101110003F4F4F4F5F4F90E8F92ACA01B901AE0126
:101120004F5F5F4F2AE030E00E940B0DE82EE88908
:10113000EE1A41C0953721F41F7E2AE030E01CC032
:10114000197F9F3661F0903720F4983509F0B2C0CE
:101150000FC0903739F0983709F0ACC004C028E0D0
:1011600030E00AC0106114FD146020E130E004C0DA
:1011700014FD166020E132E017FF08C0F60160811F
:1011800071818281938144E050E008C0F601808142
:101190009181BC0180E090E042E050E0C40ED51E99
:1011A000AE014F5F5F4F0E940B0DE82E5889E51A84
:1011B0008FE7F82EF122F6FE0BC08EEFF822E9142D
:1011C00038F4F4FE07C0F2FC05C09FEEF92202C01D
:1011D0001E2D01C0192DF4FE0DC0FE01EE0DF11DF6
:1011E0008081803319F4E9EEFE2208C01F5FF2FE11
:1011F00005C003C08F2D867809F01F5F0F2DF3FC0B
:1012000014C0F0FE0FC0181510F09E2C0BC09E2CC1
:10121000980C911A182D06C080E290E0B3010E944C
:10122000DF0C1F5F1815C0F304C0181510F4811AE5
:1012300001C0882404FF0FC080E390E0B3010E9446
:10124000DF0C02FF1DC001FD03C088E790E00EC067
:1012500088E590E00BC0802F867891F001FF02C0F6
:101260008BE201C080E2F7FC8DE290E0B3010E94C6
:10127000DF0C06C080E390E0B3010E94DF0C9A947B
:10128000E914C0F3EA94E1E0F0E0EC0FFD1FEE0D8D
:10129000F11D808190E0B3010E94DF0CEE2091F7F8
:1012A00006C080E290E0B3010E94DF0C8A9488209F
:1012B000C1F799CCF30166817781CB016196E2E1B8
:1012C0000C94B40B5058BB27AA270ED075C166D119
:1012D00030F06BD120F031F49F3F11F41EF45BC16C
:1012E0000EF4E095E7FB51C1E92F77D180F3BA17EF
:1012F000620773078407950718F071F49EF58FC194
:101300000EF4E0950B2EBA2FA02D0B01B901900120
:101310000C01CA01A0011124FF27591B99F0593F64
:1013200050F4503E68F11A16F040A22F232F342FAC
:101330004427585FF3CF469537952795A795F040FA
:101340005395C9F77EF41F16BA0B620B730B840B0F
:10135000BAF09150A1F0FF0FBB1F661F771F881FC7
:10136000C2F70EC0BA0F621F731F841F48F487951F
:1013700077956795B795F7959E3F08F0B3CF93950E
:10138000880F08F09927EE0F979587950895D9D083
:1013900008F481E008950CD00FC107D140F0FED0D1
:1013A00030F021F45F3F19F0F0C0511139C1F3C0A2
:1013B00014D198F39923C9F35523B1F3951B550B19
:1013C000BB27AA2762177307840738F09F5F5F4F18
:1013D000220F331F441FAA1FA9F333D00E2E3AF059
:1013E000E0E830D091505040E695001CCAF729D073
:1013F000FE2F27D0660F771F881FBB1F26173707C2
:101400004807AB07B0E809F0BB0B802DBF01FF27F1
:1014100093585F4F2AF09E3F510568F0B6C000C157
:101420005F3FECF3983EDCF3869577956795B7952B
:10143000F7959F5FC9F7880F911D9695879597F946
:101440000895E1E0660F771F881FBB1F62177307BF
:101450008407BA0720F0621B730B840BBA0BEE1FD4
:1014600088F7E095089504D06894B111D9C0089523
:10147000BCD088F09F5790F0B92F9927B751A0F0B2
:10148000D1F0660F771F881F991F1AF0BA95C9F718
:1014900012C0B13081F0C3D0B1E00895C0C0672F51
:1014A000782F8827B85F39F0B93FCCF386957795C8
:1014B0006795B395D9F73EF49095809570956195B1
:1014C0007F4F8F4F9F4F0895E89409C097FB3EF4DC
:1014D00090958095709561957F4F8F4F9F4F992381
:1014E000A9F0F92F96E9BB279395F69587957795FF
:1014F0006795B795F111F8CFFAF4BB0F11F460FFBF
:101500001BC06F5F7F4F8F4F9F4F16C0882311F016
:1015100096E911C0772321F09EE8872F762F05C02A
:10152000662371F096E8862F70E060E02AF09A95C5
:10153000660F771F881FDAF7880F9695879597F9BA
:101540000895990F0008550FAA0BE0E8FEEF161654
:101550001706E807F907C0F012161306E407F507A7
:1015600098F0621B730B840B950B39F40A2661F01B
:10157000232B242B252B21F408950A2609F4A140BE
:10158000A6958FEF811D811D089597F99F6780E8CB
:1015900070E060E008959FEF80EC089500240A94C5
:1015A0001616170618060906089500240A9412163E
:1015B0001306140605060895092E0394000C11F471
:1015C000882352F0BB0F40F4BF2B11F460FF04C01E
:1015D0006F5F7F4F8F4F9F4F089557FD9058440F77
:1015E000551F59F05F3F71F04795880F97FB991F82
:1015F00061F09F3F79F0879508951216130614063F
:10160000551FF2CF4695F1DF08C0161617061806CB
:10161000991FF1CF86957105610508940895E894A6
:10162000BB2766277727CB0197F908958ADF08F44F
:101630008FEF08950BD0C0CFB1DF28F0B6DF18F0E0
:10164000952309F0A2CFA7CF1124EACFC6DFA0F3DC
:10165000959FD1F3950F50E0551F629FF001729F47
:10166000BB27F00DB11D639FAA27F00DB11DAA1F66
:10167000649F6627B00DA11D661F829F2227B00DB3
:10168000A11D621F739FB00DA11D621F839FA00D3E
:10169000611D221F749F3327A00D611D231F849F8E
:1016A000600D211D822F762F6A2F11249F575040E5
:1016B0008AF0E1F088234AF0EE0FFF1FBB1F661F80
:1016C000771F881F91505040A9F79E3F510570F039
:1016D0005CCFA6CF5F3FECF3983EDCF38695779521
:1016E0006795B795F795E7959F5FC1F7FE2B880F34
:1016F000911D9695879597F9089597FB092E0526D4
:101700000ED057FD04D04BD00AD0001C38F45095B1
:101710004095309521953F4F4F4F5F4F0895F6F715
:1017200090958095709561957F4F8F4F9F4F08954D
:101730002F923F924F925F926F927F928F929F92E1
:10174000AF92BF92CF92DF92EF92FF920F931F93CF
:10175000CF93DF93CDB7DEB7CA1BDB0B0FB6F89480
:10176000DEBF0FBECDBF09942A88398848885F84C0
:101770006E847D848C849B84AA84B984C884DF8031
:10178000EE80FD800C811B81AA81B981CE0FD11D15
:101790000FB6F894DEBF0FBECDBFED010895A1E2F4
:1017A0001A2EAA1BBB1BFD010DC0AA1FBB1FEE1FDB
:1017B000FF1FA217B307E407F50720F0A21BB30B26
:1017C000E40BF50B661F771F881F991F1A9469F7A2
:1017D00060957095809590959B01AC01BD01CF01FE
:1017E0000895283008F027E03327DA01990F311DDA
:1017F00087FD916000966105710539F432602E5FB6
:101800003D9330E32A95E1F708959F3F30F080380B
:101810007105610509F03C5F3C5F3D93913008F034
:101820008068911DDF93CF931F930F93FF92EF92E8
:10183000192F987F9695E92F96959695E90FFF2792
:10184000E25FFE4F99273327EE24FF24A701E7012B
:1018500005900894079428F4360FE71EF81E491FD8
:10186000511D660F771F881F991F0694A1F70590D9
:10187000079428F4E70EF81E491F561FC11D770F65
:10188000881F991F661F0694A1F70590079428F4F6
:10189000F80E491F561FC71FD11D880F991F661FBD
:1018A000771F0694A1F70590079420F4490F561F5F
:1018B000C71FD81F990F661F771F881F0694A9F7A7
:1018C00084911095177041F0D695C7955795479517
:1018D000F794E7941A95C1F7E4EBF0E0689415905B
:1018E000159135916591959105907FE27395E11879
:1018F000F10A430B560BC90BD009C0F7E10CF11EDE
:10190000431F561FC91FD01D7EF4703311F48A95F2
:10191000E6CFE894015030F0080F0AF400270217D0
:1019200008F4202F2395022F7A3328F079E37D9352
:101930002A95E9F710C07D932A9589F60694979524
:101940006795379517951794E118F10A430B560BD5
:10195000C90BD00998F023957E9173957A3308F0DE
:1019600070E37C932013B8F77E9170617D9330F023
:10197000839571E37D9370E32A95E1F71124EF904D
:10198000FF900F911F91CF91DF91992787FD90953F
:101990000895FC010590615070400110D8F78095C2
:1019A00090958E0F9F1F0895FC016150704001902B
:1019B0000110D8F7809590958E0F9F1F08950F9373
:1019C0001F93CF93DF938C01EB018B8181FF1BC0B1
:1019D00082FF0DC02E813F818C819D8128173907A0
:1019E00064F4E881F9810193F983E88306C0E8850E
:1019F000F985802F0995892B31F48E819F8101967D
:101A00009F838E8302C00FEF1FEFC801DF91CF913C
:101A10001F910F910895FA01AA27283051F1203122
:101A200081F1E8946F936E7F6E5F7F4F8F4F9F4F72
:101A3000AF4FB1E03ED0B4E03CD0670F781F891FB4
:101A40009A1FA11D680F791F8A1F911DA11D6A0F82
:101A5000711D811D911DA11D20D009F468943F9135
:101A60002AE0269F11243019305D3193DEF6CF0134
:101A70000895462F4770405D4193B3E00FD0C9F7FA
:101A8000F6CF462F4F70405D4A3318F0495D31FD67
:101A90004052419302D0A9F7EACFB4E0A6959795BA
:101AA000879577956795BA95C9F700976105710590
:101AB00008959B01AC010A2E0694579547953795DA
:101AC0002795BA95C9F7620F731F841F951FA01D34
:061AD0000895F894FFCF19
:00000001FF
