:100000000C941B010C9438010C9438010C943801A9
:100010000C9438010C9438010C9438010C9438017C
:100020000C9438010C9438010C9438010C9438016C
:100030000C9438010C9438010C9438010C9438015C
:100040000C9438010C94B40B0C9438010C943801C6
:100050000C9438010C9454070C9438010C9438011A
:100060000C9438010C9438010C9438010C9438012C
:100070000C9438010C9438010C9438010C9438011C
:100080000C946C0B0C9438010C9438010C943801CE
:100090000C9438010C9438010C9438010C943801FC
:1000A0000C9438010C9438010C943801084AD73B61
:1000B0003BCE016E84BCBFFDC12F3D6C74319ABD37
:1000C00056833DDA3D00C77F11BED9E4BB4C3E915B
:1000D0006BAAAABE000000803F08000000BE922468
:1000E00049123EABAAAA2ABECDCCCC4C3E000000A1
:1000F00080BEABAAAAAA3E00000000BF000000809C
:100100003F0000000000084178D3BB4387D1133D76
:10011000190E3CC3BD4282AD2B3E68EC8276BED93F
:100120008FE1A93E4C80EFFFBE01C4FF7F3F00007E
:100130000000006E616E00696E660000407A10F388
:100140005A00A0724E18090010A5D4E80000E87605
:1001500048170000E40B54020000CA9A3B0000005C
:10016000E1F505000080969800000040420F000075
:1001700000A08601000000102700000000E8030036
:100180000000006400000000000A00000000000100
:1001900000000000002C76D888DC674F0823DFC100
:1001A000DFAE59E1B1B796E5E3E453C63AE65199BB
:1001B0007696E8E6C28426EB898C9B62ED407C6FE4
:1001C000FCEFBC9C9F40F2BAA56FA5F490055A2A9B
:1001D000F75C936B6CF9676DC11BFCE0E40D47FEA7
:1001E000F520E6B500D0ED902E030094357705009C
:1001F00080841E080000204E0A000000C80C333323
:1002000033330F986E12831141EF8D2114893BE631
:100210005516CFFEE6DB18D1844B381BF77C1D90BA
:100220001DA4BBE424203284725E228100C9F12423
:10023000ECA1E53D270011241FBECFEFDAE0DEBFC1
:10024000CDBF11E0A0E0B1E0E8E9FDE202C0059019
:100250000D92A830B107D9F711E0A8E0B1E001C0D4
:100260001D92A237B107E1F70E943A010C94CA1619
:100270000C9400006F927F928F929F92AF92BF92E8
:10028000CF92DF92EF92FF920F931F93CF93DF9362
:100290000E946E0C0E94300B0E9443070E94A70D23
:1002A00080E090E0A0E0B0E0809350019093510195
:1002B000A0935201B093530180E090E4ACE9B5E41F
:1002C00080934C0190934D01A0934E01B0934F0148
:1002D00080E090E0AAEFB4E480934401909345015C
:1002E000A0934601B093470180E090E4ACE1B6E40E
:1002F0008093480190934901A0934A01B0934B0128
:1003000081E090E00E94530B81E090E061E070E0BA
:100310000E94390CCC24DD2484E1682E712C0E94CB
:1003200003074C010E941707EC010E94EF065C01D5
:100330000E94800D7B018C010E943B0D0E94290DC3
:100340008114910451F4CD2B29F0C801B7010E940A
:100350007D020FC00E9473030CC0CD2B51F0AB285F
:1003600029F4C801B7010E94F8020EC00E941F04C0
:1003700004C0AB2849F0892839F070925501609289
:10038000540181E090E002C080E090E00E94630CA4
:100390000E94FB0510925501109254010894C11C53
:1003A000D11C8EE1C816D10409F0B9CF80E090E0ED
:1003B00060E070E00E94390C80E090E00E94530BF6
:1003C0000E943B0D0E94D20D80E091E00E94CF0D73
:1003D0000E94290D0E94010EF3CF2F923F924F925F
:1003E0005F926F927F928F929F92AF92BF92CF92C5
:1003F000DF92EF92FF920F931F93DF93CF9300D082
:1004000000D0CDB7DEB77B018C0120E030E040E0CA
:1004100050E00E94F61318163CF480E090E061E092
:1004200070E00E94FC0B0AC081E090E060E070E0A8
:100430000E94FC0B17FB109517F91095A0904C012A
:10044000B0904D01C0904E01D0904F01609044019A
:10045000709045018090460190904701809148013D
:1004600090914901A0914A01B0914B0189839A83EF
:10047000AB83BC83C801B7010E94EE127B01EE0C76
:10048000FF1CE60EF71E0027F7FC0095102FC60193
:10049000B5010E94EE121B012C01C401B3010E94A0
:1004A000EE123B014C0169817A818B819C810E9413
:1004B000EE125B016C01C801B70140E050E0910110
:1004C00000E010E0730165010E9458080F900F9042
:1004D0000F900F90CF91DF911F910F91FF90EF90B0
:1004E000DF90CF90BF90AF909F908F907F906F9054
:1004F0005F904F903F902F9008952F923F924F9290
:100500005F926F927F928F929F92AF92BF92CF92A3
:10051000DF92EF92FF920F931F93DF93CF9300D060
:1005200000D0CDB7DEB77B018C0181E090E060E0C8
:1005300070E00E94FC0BA0904C01B0904D01C09067
:100540004E01D0904F01E4E4F1E061907190819010
:10055000919080819181A281B38189839A83AB83B9
:10056000BC83C801B70120E030E040E450EC0E94B9
:1005700046140E94EE12605C7E4F1B01442437FC3F
:100580004094542CC601B5010E94EE127B018C01EF
:10059000C401B3010E94EE123B014C0169817A81D2
:1005A0008B819C810E94EE125B016C01C201B10142
:1005B00040E050E0970100E010E0730165010E9407
:1005C00058080F900F900F900F90CF91DF911F91CF
:1005D0000F91FF90EF90DF90CF90BF90AF909F90E2
:1005E0008F907F906F905F904F903F902F900895E5
:1005F0002F923F924F925F926F927F928F929F9233
:10060000AF92BF92CF92DF92EF92FF920F931F9320
:10061000DF93CF9300D000D0CDB7DEB77B018C0144
:1006200080E090E061E070E00E94FC0BA0904C0143
:10063000B0904D01C0904E01D0904F01E4E4F1E044
:10064000619071908190919080819181A281B3811C
:1006500089839A83AB83BC83C801B70120E030E073
:1006600040E450E40E9446140E94EE12605C7E4F0B
:100670001B01442437FC4094542CC601B5010E9450
:10068000EE127B018C01C401B3010E94EE123B010A
:100690004C0169817A818B819C810E94EE125B0101
:1006A0006C01C201B10140E050E0970100E010E0B0
:1006B000730165010E9458080F900F900F900F90E2
:1006C000CF91DF911F910F91FF90EF90DF90CF902E
:1006D000BF90AF909F908F907F906F905F904F9062
:1006E0003F902F9008952F923F924F925F926F927A
:1006F0007F928F929F92AF92BF92CF92DF92EF92B2
:10070000FF920F931F9381E090E060E070E00E9401
:10071000FC0B60914C0170914D0180914E019091C4
:100720004F01E4E4F1E0E190F19001911191A0809A
:10073000B180C280D3800E94EE121B012C01C8013F
:10074000B7010E94EE123B014C01C601B5010E94A7
:10075000EE125B016C0160E471E080E090E040E04B
:1007600050E0910100E010E0730165010E9458081B
:100770001F910F91FF90EF90DF90CF90BF90AF90BF
:100780009F908F907F906F905F904F903F902F90B1
:1007900008952F923F924F925F926F927F928F9225
:1007A0009F92AF92BF92CF92DF92EF92FF920F9300
:1007B0001F9380E090E061E070E00E94FC0B60918C
:1007C0004C0170914D0180914E0190914F01E4E4F4
:1007D000F1E0E190F19001911191A080B180C2808F
:1007E000D3800E94EE121B012C01C801B7010E94A8
:1007F000EE123B014C01C601B5010E94EE125B01F5
:100800006C0160E471E080E090E040E050E0910134
:1008100000E010E0730165010E9458081F910F91DC
:10082000FF90EF90DF90CF90BF90AF909F908F9010
:100830007F906F905F904F903F902F9008952F92F0
:100840003F924F925F926F927F928F929F92AF9260
:10085000BF92CF92DF92EF92FF920F931F93DF939D
:10086000CF93CDB7DEB728970FB6F894DEBF0FBE93
:10087000CDBF80E090E061E070E00E94FC0B3CE4C2
:10088000432E31E0532E60914C0170914D018091C7
:100890004E0190914F0128EF222E2FEF322E240C83
:1008A000351CF101E080F18002811381F201D290C8
:1008B000C290B290A2902F010E94EE1269837A83B7
:1008C0008B839C83C801B7010E94EE123B014C014F
:1008D000C601B5010E94EE125B016C0160E872E096
:1008E00080E090E040E050E029813A8100E010E0B3
:1008F000730165010E94580881E090E061E070E0BA
:100900000E94FC0B60914C0170914D0180914E0151
:1009100090914F01F101E080F18002811381F20199
:10092000A080B180C280D3800E94EE126D837E834E
:100930008F839887C801B7010E94EE123B014C01DA
:10094000C601B5010E94EE125B016C016AEF70E016
:1009500080E090E040E050E02D813E8100E010E03A
:10096000730165010E94580880E090E060E070E04B
:100970000E94FC0B60914C0170914D0180914E01E1
:1009800090914F01F101E080F18002811381F20129
:10099000A080B180C280D3800E94EE121B012C0186
:1009A000C801B7010E94EE123B014C01C601B5011E
:1009B0000E94EE125B016C0162E870E080E090E062
:1009C00040E050E0910100E010E0730165010E94F9
:1009D000580828960FB6F894DEBF0FBECDBFCF9152
:1009E000DF911F910F91FF90EF90DF90CF90BF901C
:1009F000AF909F908F907F906F905F904F903F90BF
:100A00002F9008952F923F924F925F926F927F9214
:100A10008F929F92AF92BF92CF92DF92EF92FF920E
:100A20000F931F93DF93CF93CDB7DEB728970FB601
:100A3000F894DEBF0FBECDBF8C01181619063CF42A
:100A400081E090E061E070E00E94FC0B09C080E072
:100A500090E060E070E00E94FC0B109501951F4F44
:100A600080E090E060E070E00E94FC0B609150013B
:100A7000709151018091520190915301A0904C01CD
:100A8000B0904D01C0904E01D0904F016090440154
:100A90007090450180904601909047012091480157
:100AA0003091490140914A0150914B0129833A8389
:100AB0004B835C832AE230E0029F7001039FF00CBD
:100AC000129FF00C11240027F7FC0095102F0E94B4
:100AD000EE126D837E838F839887C601B5010E94D5
:100AE000EE121B012C01C401B3010E94EE123B0166
:100AF0004C0169817A818B819C810E94EE125B019D
:100B00006C01C801B7014D815E81910100E010E0E8
:100B1000730165010E94580828960FB6F894DEBF4D
:100B20000FBECDBFCF91DF911F910F91FF90EF903E
:100B3000DF90CF90BF90AF909F908F907F906F90FD
:100B40005F904F903F902F9008952F923F924F9239
:100B50005F926F927F928F929F92AF92BF92CF924D
:100B6000DF92EF92FF920F931F9380E090E061E09D
:100B700070E00E94FC0B60914C0170914D018091DE
:100B80004E0190914F01E4E4F1E0E190F190019188
:100B90001191A080B180C280D3800E94EE121B010F
:100BA0002C01C801B7010E94EE123B014C01C601A5
:100BB000B5010E94EE125B016C0160E872E080E01A
:100BC00090E040E050E0910100E010E07301650129
:100BD0000E9458081F910F91FF90EF90DF90CF90E7
:100BE000BF90AF909F908F907F906F905F904F904D
:100BF0003F902F9008952F923F924F925F926F9265
:100C00007F928F929F92AF92BF92CF92DF92EF929C
:100C1000FF920F931F93DF93CF9300D000D0CDB7F7
:100C2000DEB780E090E060E070E00E94FC0B609135
:100C30005001709151018091520190915301ECE467
:100C4000F1E0E080F180028113813897A190B190AA
:100C5000C190D19020803180428053800E94EE125A
:100C600069837A838B839C83C801B7010E94EE124B
:100C70007B018C01C601B5010E94EE123B014C01C3
:100C8000C201B1010E94EE125B016C016AEF72E0D9
:100C900080E090E049815A81970100E010E0730103
:100CA00065010E9458080F900F900F900F90CF9100
:100CB000DF911F910F91FF90EF90DF90CF90BF9049
:100CC000AF909F908F907F906F905F904F903F90EC
:100CD0002F9008952F923F924F925F926F927F9242
:100CE0008F929F92AF92BF92CF92DF92EF92FF923C
:100CF0000F931F93DF93CF93CDB7DEB728970FB62F
:100D0000F894DEBF0FBECDBF80E090E060E070E001
:100D10000E94FC0BA0E5B1E060915001709151017F
:100D20008091520190915301FD0112910291F29034
:100D3000E290A080B180C280D3801C976D907D909E
:100D40008D909D902D913D914D915C9129833A8399
:100D50004B835C830E94EE126D837E838F83988722
:100D6000C801B7010E94EE121B012C01C601B5019A
:100D70000E94EE127B018C01C401B3010E94EE12AD
:100D80003B014C0169817A818B819C810E94EE122A
:100D90005B016C016AEF72E080E090E04D815E8162
:100DA00091018701730165010E94580828960FB6CA
:100DB000F894DEBF0FBECDBFCF91DF911F910F9191
:100DC000FF90EF90DF90CF90BF90AF909F908F906B
:100DD0007F906F905F904F903F902F900895CF93AA
:100DE000DF930E946E0DC0E0D0E020E030E040E6EE
:100DF00051E40E948212882314F4C1E0D0E0CE01B5
:100E0000DF91CF910895CF93DF930E945C0DC0E0F6
:100E1000D0E020E030E040E651E40E9482128823D6
:100E200014F4C1E0D0E0CE01DF91CF910895EF92AC
:100E3000FF920F931F93CF93DF930E943B0D7B0193
:100E40008C010E94290D9B01AC01C801B7010E94D1
:100E5000BC11C0E0D0E020E030E040E05FE30E9461
:100E6000461420E030E040E251E40E9482128823E0
:100E700014F4C1E0D0E0CE01DF91CF911F910F912A
:100E8000FF90EF90089582E084BD93E095BD9AEFC6
:100E900097BD80936E0010920A0110920B01109280
:100EA0000C0110920D0108951F920F920FB60F9230
:100EB00011248F939F93AF93BF9380910A019091D8
:100EC0000B01A0910C01B0910D010196A11DB11D66
:100ED00080930A0190930B01A0930C01B0930D0134
:100EE000BF91AF919F918F910F900FBE0F901F9068
:100EF00018952F923F924F925F926F927F928F92AE
:100F00009F92AF92BF92CF92DF92EF92FF920F9398
:100F10001F9380915601909157010197D1F00E9443
:100F20006E0D60935C0170935D0180935E01909300
:100F30005F010E945C0D609358017093590180938A
:100F40005A0190935B0181E090E090935701809368
:100F500056010E946E0D1B012C010E945C0D3B018D
:100F60004C0120915C0130915D0140915E015091F6
:100F70005F01C201B1010E94BB1120E030E040E8F6
:100F80005FE30E94F613181624F410925501109294
:100F90005401209158013091590140915A015091CA
:100FA0005B01C401B3010E94BB1120E030E040E8C6
:100FB0005FE30E94F613181624F410925501109264
:100FC0005401C401B301A20191010E94BB115B0154
:100FD0006C01009154011091550120E030E040EC8B
:100FE00050E40E94F613181674F0B801882777FDB4
:100FF0008095982F0E9421139B01AC01C601B50179
:101000000E9446140FC02091540130915501B9013E
:10101000660F771F620F731F882777FD8095982FC3
:101020000E9421137B018C01C601B50120E030E054
:1010300040EC50EC0E9482128823A4F420915401C9
:1010400030915501B901660F771F620F731F7095BC
:1010500061957F4F882777FD8095982F0E942113F7
:101060007B018C0120925C0130925D0140925E0117
:1010700050925F01609258017092590180925A011A
:1010800090925B01C801B7010E94EE12CB011F9143
:101090000F91FF90EF90DF90CF90BF90AF909F9017
:1010A0008F907F906F905F904F903F902F9008951A
:1010B0002F923F924F925F926F927F928F929F9268
:1010C000AF92BF92CF92DF92EF92FF920F931F9356
:1010D000DF93CF93CDB7DEB7AE970FB6F894DEBFF0
:1010E0000FBECDBF69877A878B879C873EA72DA7C8
:1010F0001E870D87D88ACF8680910A0190910B01B7
:10110000A0910C01B0910D018D839E83AF83B887B0
:1011100010921401109215011092160110921701ED
:101120008091140190911501A0911601B0911701C1
:1011300080932C0190932D01A0932E01B0932F0149
:10114000CA01AA2797FDA095BA2F898F9A8FAB8FD6
:10115000BC8F9701442737FD4095542F2D8F3E8F2C
:101160004F8F58A38DA59EA5AA2797FDA095BA2FAE
:1011700089A39AA3ABA3BCA39601442737FD40954E
:10118000542F2DA33EA34FA358A7C801AA2797FD0C
:10119000A095BA2F89A79AA7ABA7BCA705C1609154
:1011A0000A0170910B0180910C0190910D012D812C
:1011B0003E814F815885621B730B840B950B0E94F7
:1011C0001F1320E030E04AE754E40E9486129B019E
:1011D000AC01C601B5010E9446149B01AC01C401DB
:1011E000B3010E94BC11698B7A8B8B8B9C8B0E9404
:1011F000790729893A894B895C892093500130937A
:1012000051014093520150935301AA2797FDA09595
:10121000BA2FBC01CD010E9421137B018C01698989
:101220007A898B899C89A80197010E94BB110E9431
:10123000EE12DC01CB010E94500CAA2797FDA0956D
:10124000BA2FBC01CD010E94211360931801709345
:10125000190180931A0190931B0169897A898B89FE
:101260009C89A80197010E94BC110E94EE12DC012A
:10127000CB010E94500CAA2797FDA095BA2FBC0164
:10128000CD010E942113609330017093310180934E
:101290003201909333016DA17EA18FA198A50E9488
:1012A00021135B016C0169A57AA58BA59CA50E9401
:1012B00021133B014C016091140170911501809143
:1012C0001601909117010E9421136D8B7E8B8F8BDD
:1012D000988F69897A898B899C899B01AC010E94CE
:1012E00046147B018C01C601B501A60195010E943F
:1012F000BC119B01AC01C801B7010E9486121B0101
:101300002C01C401B301A40193010E9446147B0186
:101310008C01C601B50120E030E040E050EC0E94B5
:1013200046149B01AC01C801B7010E9486129B01C3
:10133000AC01C201B1010E94BC119B01AC016D89DD
:101340007E898F89988D0E94BC117B018C016985F3
:101350007A858B859C850E9421139B01AC01C80175
:10136000B7010E94F61388234CF069897A898B892A
:101370009C890E94EE127EA76DA75AC0809114012D
:1013800090911501A0911601B091170129853A8518
:101390004B855C8582179307A407B5070CF047C1FE
:1013A00080EA9FE00197F1F7698D7A8D8B8D9C8D96
:1013B0000E9421133B014C016D8D7E8D8F8D98A174
:1013C0000E9421135B016C0160910A0170910B0175
:1013D00080910C0190910D012D813E814F815885A6
:1013E000621B730B840B950B0E941F1320E030E0EF
:1013F0004AE754E40E9486129B01AC01C601B50184
:101400000E9446149B01AC01C401B3010E94BC11AF
:101410007B018C0169A17AA18BA19CA10E9421135F
:101420009B01AC01C801B7010E94821287FDB7CEB3
:101430004DA55EA5BA01882777FD8095982F0E945B
:1014400021131B012C01AF85B889BD01882777FDC9
:101450008095982F0E9421133B014C01ED85FE855C
:10146000BF01882777FD8095982F0E9421136983FB
:101470007A838B839C83C201B101A20191010E94F6
:1014800046147B018C01C401B301A40193010E94A5
:10149000BC119B01AC01C801B7010E9486125B011F
:1014A0006C0169817A818B819C819B01AC010E94D6
:1014B00046147B018C01C401B30120E030E040E020
:1014C00050EC0E9446149B01AC01C801B7010E9478
:1014D00086129B01AC01C601B5010E94BC115B01E3
:1014E0006C01609114017091150180911601909129
:1014F00017010E942113A60195010E94BC117B01D6
:101500008C0169857A858B859C850E9421139B01BE
:10151000AC01C801B7010E94821287FDE2CFA09002
:101520000A01B0900B01C0900C01D0900D0156C083
:1015300060910A0170910B0180910C0190910D0155
:101540006A197B098C099D090E941F1320E030E075
:101550004AE754EC0E9486129B01AC01C401B3011E
:101560000E9446149B01AC01C201B1010E94BC1152
:1015700060935001709351018093520190935301F5
:101580000E94EE127B018C01CB010E94500CAA2715
:1015900097FDA095BA2FBC01CD010E942113609345
:1015A00018017093190180931A0190931B01C701D0
:1015B0000E94500CAA2797FDA095BA2FBC01CD011F
:1015C0000E942113609330017093310180933201A6
:1015D0009093330180EA9FE00197F1F760910A014F
:1015E00070910B0180910C0190910D016A197B099A
:1015F0008C099D090E941F1320E030E04AE754EC5B
:101600000E9486129B01AC01C401B3010E944614E2
:101610009B01AC01C201B1010E94BC1129813A8138
:101620004B815C810E94F61318160CF481CFAE96A4
:101630000FB6F894DEBF0FBECDBFCF91DF911F91E3
:101640000F91FF90EF90DF90CF90BF90AF909F9061
:101650008F907F906F905F904F903F902F90089564
:101660008AB18E608AB984B1836C84B988E0809332
:10167000810080939100109289001092880010924E
:1016800099001092980082E080936F00809371001F
:1016900010928B0010928A0010929B0010929A0078
:1016A00078942E9A0895892B11F02E9808952E9AE9
:1016B0000895FC01208181E090E002C0880F991F0D
:1016C0006A95E2F7282B20839AE19A95F1F7208119
:1016D00080958223808308951F920F920FB60F92F8
:1016E00011242F933F934F935F936F937F938F9327
:1016F0009F93AF93BF93EF93FF9385E290E067E0F2
:101700000E94590B80912C0190912D01A0912E01E6
:10171000B0912F010196A11DB11D80932C019093D2
:101720002D01A0932E01B0932F0160913001709193
:10173000310180913201909133010E94F312709334
:10174000990060939800FF91EF91BF91AF919F91A5
:101750008F917F916F915F914F913F912F910F905A
:101760000FBE0F901F9018951F920F920FB60F92F9
:1017700011242F933F934F935F936F937F938F9396
:101780009F93AF93BF93EF93FF938BE290E061E061
:101790000E94590B8091140190911501A09116019E
:1017A000B09117010196A11DB11D80931401909372
:1017B0001501A0931601B093170160911801709163
:1017C000190180911A0190911B010E94F3127093EC
:1017D000890060938800FF91EF91BF91AF919F9135
:1017E0008F917F916F915F914F913F912F910F90CA
:1017F0000FBE0F901F901895892B11F0589801C0BB
:10180000589A672B11F05E9A08955E980895CF93C9
:10181000DF93EC01688579858A859B8520E030E03F
:101820004FE753E40E94821218167CF06885798590
:101830008A859B850E94EE1280E090E0A0E0B0E0F7
:1018400088879987AA87BB8710C0688579858A852C
:101850009B8520E030E04FE753E40E94BB1168878E
:1018600079878A879B876FEF70E0CB01DF91CF91FB
:101870000895892B21F080918100836003C08091BD
:1018800081008C7F80938100672B21F080919100F3
:10189000836003C0809191008C7F809391000895B4
:1018A0008A3091051CF428EA31E60BC09C014427DC
:1018B00037FD4095542F60E970ED83E090E00E9481
:1018C000BA14C901089582FF02C0769A01C07698C1
:1018D00081FF02C02D9A08952D98089580E4809389
:1018E0007C0087E880937A008AB180698AB93E9A41
:1018F000249A259A6E9A08958770806480937C005C
:1019000080917A00806480937A0080917A0084FFCD
:10191000FCCF80917A00806180937A0020917800DA
:1019200030917900C90108950E947C0C20E030E0DC
:101930008150924010F421E030E0C901089587E021
:101940000E947C0C9093610180936001089587E070
:101950000E947C0C2091600130916101821B930BED
:101960009C010296059750F0809108019091090121
:10197000820F931F90930901809308012091080121
:1019800030910901C90108950E947C0C0895CF92FD
:10199000DF92EF92FF920F931F937C01842FF70148
:1019A000908101E010E002C0000F111F6A95E2F77C
:1019B000902B908390E4C92E91E0D92EF6013197B7
:1019C000F1F70E947C0CF70120810095022300832F
:1019D000F6013197F1F71F910F91FF90EF90DF9093
:1019E000CF900895EF92FF920F931F937B018C018C
:1019F00020E030E844E754E40E94F61318166CF433
:101A0000C801B7012BE63FED40E35EEB0E944614B0
:101A100024EE39EA4DE253E40EC0C801B7010E943A
:101A200006142DEC3AE846E750EC0E94461427EFE6
:101A300035E04AEF51E40E94BC11E62F2E2F372FDC
:101A4000482F592FB901CA011F910F91FF90EF90B4
:101A500008958BE290E064E047E050E00E94C70CFC
:101A6000AA2797FDA095BA2FBC01CD010E94211392
:101A70000E94F20C089585E290E064E045E050E0B9
:101A80000E94C70CAA2797FDA095BA2FBC01CD01D3
:101A90000E9421130E94F20C08950E94061422EA6B
:101AA00034EB40EC50EC0E94461421E23AE24EE264
:101AB00052E40E94BC11089588E290E066E044E0A0
:101AC00050E00E94C70CAA2797FDA095BA2FBC0131
:101AD000CD010E9421130E944D0D08958BE290E0EC
:101AE00067E046E050E00E94C70CAA2797FDA0954A
:101AF000BA2FBC01CD010E9421130E944D0D089503
:101B0000EF92FF920F931F930E943B0D7B018C017C
:101B10000E94290DA80197010E94BB119B01AC01F5
:101B200060E070E080EA90E40E942F1221EE3EE235
:101B300045E652EC0E94461420E030E044EB52E4CB
:101B40000E94BC111F910F91FF90EF900895109289
:101B5000CD0087E68093CC0088E18093C90086E0C1
:101B60008093CA0008958091C80087FFFCCF8091C0
:101B7000CE000895982F8091C80085FFFCCF9093E8
:101B8000CE000895FC0107C08091C80085FFFCCFFE
:101B90009093CE00319690819923B1F708950E94D9
:101BA000C20D08950F931F932DB73EB728503040B4
:101BB0000FB6F8943EBF0FBE2DBFEDB7FEB73196FE
:101BC00002E611E0ADB7BEB712961C930E931197C3
:101BD00022E031E033832283648375838683978395
:101BE0000E9448162DB73EB7285F3F4F0FB6F894B6
:101BF0003EBF0FBE2DBFC8010E94C20D1F910F91A5
:101C000008950F931F932DB73EB7285030400FB65D
:101C1000F8943EBF0FBE2DBFEDB7FEB7319602E67A
:101C200011E0ADB7BEB712961C930E93119722E048
:101C300031E03383228364837583868397830E9494
:101C400048162DB73EB7285F3F4F0FB6F8943EBFFA
:101C50000FBE2DBFC8010E94C20D85E091E00E9419
:101C6000C20D1F910F910895A1E1B0E0EAE3FEE0FB
:101C70000C94D5143C017F876E876A01FC011782A2
:101C80001682838181FD03C06FEF7FEF6FC39E01DA
:101C90002F5F3F4F398B288BF3012381EE85FF8522
:101CA00023FD859123FF8191FF87EE87882309F427
:101CB0005AC3853251F4EE85FF8523FD859123FFBC
:101CC0008191FF87EE87853229F490E0B3010E946D
:101CD0001C16E2CF982F10E0882499241032B0F41B
:101CE0009B3269F09C3228F4903251F0933271F4B7
:101CF0000BC09D3239F0903349F4116028C0126056
:101D0000146025C0186023C0106121C017FD2AC0CF
:101D1000892F80538A3078F416FF06C0FAE09F9E20
:101D2000902C1124980E13C03AE0839E802C11242D
:101D3000880E10620CC09E3221F416FD14C310648C
:101D400006C09C3611F4106802C0983659F4EE852E
:101D5000FF8523FD959123FF9191FF87EE879923BE
:101D600009F0BCCF892F8554833020F4812F806106
:101D7000905E07C0892F8556833008F09FC1812F60
:101D80008F7E86FD02C076E0972E6FE3F62EF82256
:101D9000953619F4F0E4FF2A07C0963619F420E8C6
:101DA000F22A02C091109A94F7FE0AC03BE339155B
:101DB00018F45CE3B52E02C0B92CB39427E009C037
:101DC00047E0491520F4BB2447E0942EF7CF292D96
:101DD000BB24C60104969D878C87F60160817181C2
:101DE00082819381AE014F5F5F4F0B2D0E942E15B4
:101DF0006C010981202E332400FF04C003FD02C0C2
:101E00001DE209C0F1FE02C01BE205C0F2FC02C0E7
:101E100010E001C010E2C1018C709070892BB9F103
:101E2000112311F483E001C084E0881510F08824A8
:101E30000AC0881AF3FC07C080E290E0B3010E9458
:101E40001C168A94C9F7112329F0812F90E0B30161
:101E50000E941C1623FE03C003E311E00EC007E33B
:101E600011E00BC0E114F10409F0805290E0B301DD
:101E70000E941C160F5F1F4F05C0EF2CFF24F0E1DE
:101E8000EF22FF24F8018491882361F714C1F7FE43
:101E900012C0BC0C24FE04C08A81813309F4BA94B8
:101EA0001B141CF0BB24B3942DC0F8E0FB1550F5B7
:101EB00038E0B32E27C0F6FC25C0892D90E08C15A4
:101EC0009D054CF02CEFC2162FEFD20624F030E81F
:101ED000F32A01C09A94992049F0E2E0F0E0EC0F77
:101EE000FD1FE90DF11D80818033A1F3F7FE0AC0CB
:101EF000B92CB394892D90E0C816D90614F0992412
:101F000001C09C18F7FC03C025E030E009C01C1498
:101F10001D041CF021E030E003C096012F5F3F4F0D
:101F2000112311F02F5F3F4F992029F0892D90E068
:101F30000196280F391F882D90E02817390714F0D3
:101F4000882401C0821A4F2C5524C20189709070D8
:101F5000892B39F008C080E290E0B3010E941C1682
:101F60008A948820C1F7112329F0812F90E0B301D2
:101F70000E941C1643FE07C008C080E390E0B30136
:101F80000E941C168A948820C1F7F7FE46C086017D
:101F9000D7FE02C000E010E076010894E11CF11CBD
:101FA000E01AF10A41E050E04C0F5D1FE40EF51E0F
:101FB00026014B185108892D90E0AA24BB24A81AA9
:101FC000B90A5FEF0F3F150729F48EE290E0B301E5
:101FD0000E941C16C016D10634F0401651061CF49F
:101FE000F701808101C080E3015010400894E11C9A
:101FF000F11C0A151B052CF090E0B3010E941C1681
:10200000E0CF0C151D0539F49A81963318F49533F9
:1020100011F424FE81E390E04BC08A81813309F002
:102020000F7E90E0B3010E941C169920A1F08EE271
:1020300090E0B3010E941C1612E0E1E0F0E0EC0F2A
:10204000FD1FE10FF11D1F5F808190E0B3010E9431
:102050001C169A9491F744FC03C085E690E002C0F8
:1020600085E490E0B3010E941C16D7FC05C0C114A2
:10207000D10441F404FF06C0D094C194D108D39494
:102080008DE201C08BE290E0B3010E941C1680E358
:1020900005C08F5F26EF3FEFC20ED31E3AE0C31696
:1020A000D104BCF790E0B3010E941C16C601C09693
:1020B000B3010E941C16CC84DD8452C1933631F0EA
:1020C000933799F0933509F059C023C0F601808108
:1020D00089835E010894A11CB11C22E030E0C20E8D
:1020E000D31E21E0E22EF12C12C0F601A080B180B7
:1020F00016FD03C06FEF7FEF02C0692D70E022E094
:1021000030E0C20ED31EC5010E9411167C011F775C
:1021100013C0F601A080B18016FD03C06FEF7FEF02
:1021200002C0692D70E022E030E0C20ED31EC5016E
:102130000E9406167C01106813FF07C01BC080E2D6
:1021400090E0B3010E941C168A94882D90E0E81656
:10215000F906A8F30FC0F50117FD859117FF8191CE
:102160005F0190E0B3010E941C1681108A940894CC
:10217000E108F108E114F10471F7F2C0943611F0AE
:10218000993689F517FF08C0F60120813181428117
:10219000538184E090E00AC0F601808191819C0126
:1021A000442737FD4095542F82E090E0C80ED91E99
:1021B0009FE6F92EF12257FF09C0509540953095C2
:1021C00021953F4F4F4F5F4F90E8F92ACA01B9015F
:1021D000AE014F5F5F4F2AE030E00E946C16E82EA0
:1021E000E889EE1A41C0953721F41F7E2AE030E0DD
:1021F0001CC0197F9F3661F0903720F4983509F0A4
:10220000B2C00FC0903739F0983709F0ACC004C0A5
:1022100028E030E00AC0106114FD146020E130E0D5
:1022200004C014FD166020E132E017FF08C0F6017B
:10223000608171818281938144E050E008C0F601A1
:1022400080819181BC0180E090E042E050E0C40ECA
:10225000D51EAE014F5F5F4F0E946C16E82E588965
:10226000E51A8FE7F82EF122F6FE0BC08EEFF8226A
:10227000E91438F4F4FE07C0F2FC05C09FEEF92221
:1022800002C01E2D01C0192DF4FE0DC0FE01EE0D81
:10229000F11D8081803319F4E9EEFE2208C01F5F32
:1022A000F2FE05C003C08F2D867809F01F5F0F2D49
:1022B000F3FC14C0F0FE0FC0181510F09E2C0BC0DC
:1022C0009E2C980C911A182D06C080E290E0B30164
:1022D0000E941C161F5F1815C0F304C0181510F4D7
:1022E000811A01C0882404FF0FC080E390E0B3018D
:1022F0000E941C1602FF1DC001FD03C088E790E08C
:102300000EC088E590E00BC0802F867891F001FF29
:1023100002C08BE201C080E2F7FC8DE290E0B301E5
:102320000E941C1606C080E390E0B3010E941C16B8
:102330009A94E914C0F3EA94E1E0F0E0EC0FFD1F99
:10234000EE0DF11D808190E0B3010E941C16EE207D
:1023500091F706C080E290E0B3010E941C168A94B7
:102360008820C1F799CCF30166817781CB01619612
:10237000E2E10C94F1145058BB27AA270ED0FCC1FF
:10238000EDD130F0F2D120F031F49F3F11F41EF482
:10239000BDC10EF4E095E7FBB3C1E92FFED180F398
:1023A000BA17620773078407950718F071F49EF552
:1023B00016C20EF4E0950B2EBA2FA02D0B01B90119
:1023C00090010C01CA01A0011124FF27591B99F0AB
:1023D000593F50F4503E68F11A16F040A22F232FB7
:1023E000342F4427585FF3CF469537952795A79507
:1023F000F0405395C9F77EF41F16BA0B620B730BAE
:10240000840BBAF09150A1F0FF0FBB1F661F771F1E
:10241000881FC2F70EC0BA0F621F731F841F48F4D3
:10242000879577956795B795F7959E3F08F0B3CF59
:102430009395880F08F09927EE0F97958795089543
:102440008DD158F080E891E009F49EEF8ED128F00C
:1024500040E851E059F45EEF09C058C1C0C1E92F0E
:10246000E0789BD168F3092E052AC1F326173707B8
:102470004807590738F00E2E07F8E02569F0E025E7
:10248000E0640AC0EF6307F8009407FADB01B901C2
:102490009D01DC01CA01AD01EF9347D06DD10AD097
:1024A0005F91552331F02BED3FE049E450FD49ECBD
:1024B00063CF0895DF93DD27B92FBF7740E85FE34F
:1024C0001616170648075B0710F4D92F93D19F9370
:1024D0008F937F936F933DD2ECEAF0E01AD14CD109
:1024E0002F913F914F915F91DDD1DD2349F09058BD
:1024F000A2EA2AED3FE049EC5FE3D0785D274DDFAB
:10250000DF913AC1D9D008F481E008950CD034C1EC
:102510002CD140F023D130F021F45F3F19F0F0C00E
:1025200051115EC1F3C039D198F39923C9F35523F2
:10253000B1F3951B550BBB27AA27621773078407B6
:1025400038F09F5F5F4F220F331F441FAA1FA9F36C
:1025500033D00E2E3AF0E0E830D091505040E6955E
:10256000001CCAF729D0FE2F27D0660F771F881FBF
:10257000BB1F261737074807AB07B0E809F0BB0BAE
:10258000802DBF01FF2793585F4F2AF09E3F5105D2
:1025900068F0B6C025C15F3FECF3983EDCF386954A
:1025A00077956795B795F7959F5FC9F7880F911D48
:1025B0009695879597F90895E1E0660F771F881F34
:1025C000BB1F621773078407BA0720F0621B730BE7
:1025D000840BBA0BEE1F88F7E095089504D0689439
:1025E000B111FEC00895E1D088F09F5790F0B92F47
:1025F0009927B751A0F0D1F0660F771F881F991F58
:102600001AF0BA95C9F712C0B13081F0E8D0B1E044
:102610000895E5C0672F782F8827B85F39F0B93F54
:10262000CCF3869577956795B395D9F73EF4909559
:102630008095709561957F4F8F4F9F4F0895E894D7
:1026400009C097FB3EF490958095709561957F4FFA
:102650008F4F9F4F9923A9F0F92F96E9BB279395A8
:10266000F695879577956795B795F111F8CFFAF4B8
:10267000BB0F11F460FF1BC06F5F7F4F8F4F9F4FE9
:1026800016C0882311F096E911C0772321F09EE847
:10269000872F762F05C0662371F096E8862F70E0AD
:1026A00060E02AF09A95660F771F881FDAF7880F87
:1026B0009695879597F90895990F0008550FAA0BDD
:1026C000E0E8FEEF16161706E807F907C0F0121645
:1026D0001306E407F50798F0621B730B840B950B48
:1026E00039F40A2661F0232B242B252B21F408959D
:1026F0000A2609F4A140A6958FEF811D811D08953A
:1027000097F99F6780E870E060E008959FEF80ECA4
:102710000895DF93CF931F930F93FF92EF92DF9271
:102720007B018C01689405C0DA2EEF01BBD0FE015D
:10273000E894A5912591359145915591AEF3EF011E
:102740002CDEFE019701A801DA9479F7DF90EF9073
:10275000FF900F911F91CF91DF91089500240A946B
:102760001616170618060906089500240A9412166C
:102770001306140605060895092E0394000C11F49F
:10278000882352F0BB0F40F4BF2B11F460FF04C04C
:102790006F5F7F4F8F4F9F4F089557FD9058440FA5
:1027A000551F59F05F3F71F04795880F97FB991FB0
:1027B00061F09F3F79F0879508951216130614066D
:1027C000551FF2CF4695F1DF08C0161617061806FA
:1027D000991FF1CF86957105610508940895E894D5
:1027E000BB2766277727CB0197F9089565DF08F4A3
:1027F0008FEF08959B01AC0160E070E080E89FE3FB
:1028000085CE0EF0A9C082CF68947ACFCEDFC8F310
:102810009923D1F3C6F3DF93CF931F930F93FF92C6
:10282000C92FDD2788232AF02197660F771F881F7D
:10283000DAF720E030E040E85FEB9FE3883920F0F2
:10284000803E30F021968F7797DDE9EDF0E003C010
:1028500093DDE6E0F1E05DDF8B01BE01EC01FB2ED4
:102860006F5771097595771F880B990BEADE28E180
:1028700032E741E35FE316D0AF2D9801AE01FF9040
:102880000F911F91CF91DF9188DD76CF0BD074CF60
:1028900065DF28F06ADF18F0952309F031CF36CFD5
:1028A00011249ECF7ADFA0F3959FD1F3950F50E0CE
:1028B000551F629FF001729FBB27F00DB11D639FF2
:1028C000AA27F00DB11DAA1F649F6627B00DA11D98
:1028D000661F829F2227B00DA11D621F739FB00D3E
:1028E000A11D621F839FA00D611D221F749F3327AE
:1028F000A00D611D231F849F600D211D822F762F47
:102900006A2F11249F5750408AF0E1F088234AF043
:10291000EE0FFF1FBB1F661F771F881F915050408F
:10292000A9F79E3F510570F0EBCE5ACF5F3FECF315
:10293000983EDCF3869577956795B795F795E7957B
:102940009F5FC1F7FE2B880F911D9695879597F98C
:1029500008959B01AC019ACF9F3F31F0915020F434
:10296000879577956795B795880F911D969587956B
:1029700097F9089597FB092E05260ED057FD04D030
:102980004BD00AD0001C38F45095409530952195D5
:102990003F4F4F4F5F4F0895F6F790958095709594
:1029A00061957F4F8F4F9F4F08952F923F924F9287
:1029B0005F926F927F928F929F92AF92BF92CF92CF
:1029C000DF92EF92FF920F931F93CF93DF93CDB7D8
:1029D000DEB7CA1BDB0B0FB6F894DEBF0FBECDBF50
:1029E00009942A88398848885F846E847D848C8421
:1029F0009B84AA84B984C884DF80EE80FD800C812A
:102A00001B81AA81B981CE0FD11D0FB6F894DEBF0C
:102A10000FBECDBFED010895A1E21A2EAA1BBB1B6C
:102A2000FD010DC0AA1FBB1FEE1FFF1FA217B3079A
:102A3000E407F50720F0A21BB30BE40BF50B661FB0
:102A4000771F881F991F1A9469F760957095809574
:102A500090959B01AC01BD01CF010895283008F08D
:102A600027E03327DA01990F311D87FD9160009629
:102A70006105710539F432602E5F3D9330E32A958C
:102A8000E1F708959F3F30F080387105610509F046
:102A90003C5F3C5F3D93913008F08068911DDF936F
:102AA000CF931F930F93FF92EF92192F987F9695D4
:102AB000E92F96959695E90FFF27EB56FE4F99273C
:102AC0003327EE24FF24A701E7010590089407941B
:102AD00028F4360FE71EF81E491F511D660F771F99
:102AE000881F991F0694A1F70590079428F4E70E14
:102AF000F81E491F561FC11D770F881F991F661F9B
:102B00000694A1F70590079428F4F80E491F561F64
:102B1000C71FD11D880F991F661F771F0694A1F745
:102B20000590079420F4490F561FC71FD81F990F0F
:102B3000661F771F881F0694A9F784911095177058
:102B400041F0D695C79557954795F794E7941A9510
:102B5000C1F7EBE3F1E0689415901591359165911B
:102B6000959105907FE27395E118F10A430B560B9E
:102B7000C90BD009C0F7E10CF11E431F561FC91F36
:102B8000D01D7EF4703311F48A95E6CFE89401509D
:102B900030F0080F0AF40027021708F4202F2395BD
:102BA000022F7A3328F079E37D932A95E9F710C054
:102BB0007D932A9589F6069497956795379517958D
:102BC0001794E118F10A430B560BC90BD00998F082
:102BD00023957E9173957A3308F070E37C932013EC
:102BE000B8F77E9170617D9330F0839571E37D93AA
:102BF00070E32A95E1F71124EF90FF900F911F9158
:102C0000CF91DF91992787FD90950895FC0105905C
:102C1000615070400110D8F7809590958E0F9F1FDE
:102C20000895FC016150704001900110D8F7809523
:102C300090958E0F9F1F08950F931F93CF93DF934F
:102C40008C01EB018B8181FF1BC082FF0DC02E81A7
:102C50003F818C819D812817390764F4E881F981CF
:102C60000193F983E88306C0E885F985802F0995EB
:102C7000892B31F48E819F8101969F838E8302C0C0
:102C80000FEF1FEFC801DF91CF911F910F910895B2
:102C9000AEE0B0E0EEE4F6E10C94E3140D891E8999
:102CA00086E08C831A8309838FEF9FE79E838D8351
:102CB0009E01275E3F4FCE0101966F89788DA90155
:102CC0000E94340E2F813885020F131FF8011082E5
:102CD0002E96E4E00C94FF14FA01AA27283051F153
:102CE000203181F1E8946F936E7F6E5F7F4F8F4F3D
:102CF0009F4FAF4FB1E03ED0B4E03CD0670F781F9C
:102D0000891F9A1FA11D680F791F8A1F911DA11D80
:102D10006A0F711D811D911DA11D20D009F46894B9
:102D20003F912AE0269F11243019305D3193DEF661
:102D3000CF010895462F4770405D4193B3E00FD017
:102D4000C9F7F6CF462F4F70405D4A3318F0495D02
:102D500031FD4052419302D0A9F7EACFB4E0A695E5
:102D60009795879577956795BA95C9F70097610507
:102D7000710508959B01AC010A2E0694579547955D
:102D800037952795BA95C9F7620F731F841F951F52
:082D9000A01D0895F894FFCF87
:082D98002C002566000A0D0065
:00000001FF
