:100000000C9404010C9421010C9421010C94210105
:100010000C9421010C9421010C9421010C942101D8
:100020000C9421010C9421010C9421010C942101C8
:100030000C9421010C9421010C9421010C942101B8
:100040000C9421010C9412090C9421010C942101AF
:100050000C9421010C9434010C9421010C94210185
:100060000C9421010C9421010C9421010C94210188
:100070000C9421010C9421010C9421010C94210178
:100080000C94CA080C9421010C9421010C942101B8
:100090000C9421010C9421010C9421010C94210158
:1000A0000C9421010C9421010C9421010800000002
:1000B000BE922449123EABAAAA2ABECDCCCC4C3E5D
:1000C00000000080BEABAAAAAA3E00000000BF004C
:1000D0000000803F0000000000084178D3BB438748
:1000E000D1133D190E3CC3BD4282AD2B3E68EC825C
:1000F00076BED98FE1A93E4C80EFFFBE01C4FF7FE1
:100100003F00000000006E616E00696E66000040F6
:100110007A10F35A00A0724E18090010A5D4E80016
:1001200000E87648170000E40B54020000CA9A3B2E
:10013000000000E1F50500008096980000004042B4
:100140000F000000A0860100000010270000000042
:10015000E803000000006400000000000A00000046
:1001600000000100000000002C76D888DC674F08F2
:1001700023DFC1DFAE59E1B1B796E5E3E453C63AF8
:10018000E651997696E8E6C28426EB898C9B62ED6F
:10019000407C6FFCEFBC9C9F40F2BAA56FA5F49029
:1001A000055A2AF75C936B6CF9676DC11BFCE0E4A0
:1001B0000D47FEF520E6B500D0ED902E03009435F6
:1001C00077050080841E080000204E0A000000C849
:1001D0000C333333330F986E12831141EF8D21149A
:1001E000893BE65516CFFEE6DB18D1844B381BF76A
:1001F0007C1D901DA4BBE424203284725E22810009
:10020000C9F124ECA1E53D2711241FBECFEFDAE0B0
:10021000DEBFCDBF11E0A0E0B1E0ECE5F6E202C048
:1002200005900D92A630B107D9F711E0A6E0B1E034
:1002300001C01D92AC36B107E1F70E9459010C9440
:100240002C130C94000082E084BD93E095BD9AEFDE
:1002500097BD80936E0010920601109207011092D4
:1002600008011092090108951F920F920FB60F9284
:1002700011248F939F93AF93BF9380910601909128
:100280000701A0910801B09109010196A11DB11DBE
:100290008093060190930701A0930801B093090190
:1002A000BF91AF919F918F910F900FBE0F901F90B4
:1002B00018950E94D1090E948E0892E094BD83E0B7
:1002C00085BD8AEF87BD90936E0010920601109253
:1002D000070110920801109209010E94750A80E03E
:1002E00090E0A0E0B0E080934C0190934D01A0938A
:1002F0004E01B0934F0180E090E4ACE9B5E4809307
:10030000480190934901A0934A01B0934B0180E0CA
:1003100090E0AAEFB4E48093400190934101A09350
:100320004201B093430180E090E4ACE1B6E48093F5
:10033000440190934501A0934601B093470181E0A9
:1003400090E00E94B10881E090E061E070E00E94DE
:10035000970980E090E060E070E00E94970980E0FB
:1003600090E00E94B10887E090E00E94020AAA276C
:1003700097FDA095BA2FBC01CD010E948D0F0E9460
:10038000CF0AF1CF2F923F924F925F926F927F925E
:100390008F929F92AF92BF92CF92DF92EF92FF9295
:1003A0000F931F9381E090E060E070E00E945A0993
:1003B000609148017091490180914A0190914B01EF
:1003C000E0E4F1E0E190F19001911191A080B18021
:1003D000C280D3800E945A0F1B012C01C801B701B3
:1003E0000E945A0F3B014C01C601B5010E945A0FF1
:1003F0005B016C0160E471E080E090E040E050E07F
:10040000910100E010E0730165010E94B6051F91A3
:100410000F91FF90EF90DF90CF90BF90AF909F90A3
:100420008F907F906F905F904F903F902F900895A6
:100430002F923F924F925F926F927F928F929F92F4
:10044000AF92BF92CF92DF92EF92FF920F931F93E2
:1004500080E090E061E070E00E945A0960914801FC
:100460007091490180914A0190914B01E0E4F1E0E3
:10047000E190F19001911191A080B180C280D38070
:100480000E945A0F1B012C01C801B7010E945A0F8C
:100490003B014C01C601B5010E945A0F5B016C0182
:1004A00063E371E080E090E040E050E0910100E023
:1004B00010E0730165010E94B6051F910F91FF9036
:1004C000EF90DF90CF90BF90AF909F908F907F90F4
:1004D0006F905F904F903F902F9008952F923F9292
:1004E0004F925F926F927F928F929F92AF92BF9244
:1004F000CF92DF92EF92FF920F931F93DF93CF93F0
:10050000CDB7DEB728970FB6F894DEBF0FBECDBFCC
:1005100080E090E061E070E00E945A0938E4432EE8
:1005200031E0532E609148017091490180914A0158
:1005300090914B0128EF222E2FEF322E240C351CE8
:10054000F101E080F18002811381F201D290C2902A
:10055000B290A2902F010E945A0F69837A838B83F5
:100560009C83C801B7010E945A0F3B014C01C60190
:10057000B5010E945A0F5B016C0160E872E080E0F7
:1005800090E040E050E029813A8100E010E0730102
:1005900065010E94B60581E090E061E070E00E9494
:1005A0005A09609148017091490180914A019091E6
:1005B0004B01F101E080F18002811381F201A08002
:1005C000B180C280D3800E945A0F6D837E838F8357
:1005D0009887C801B7010E945A0F3B014C01C60120
:1005E000B5010E945A0F5B016C016AEF70E080E078
:1005F00090E040E050E02D813E8100E010E073018A
:1006000065010E94B60580E090E060E070E00E9425
:100610005A09609148017091490180914A01909175
:100620004B01F101E080F18002811381F201A08091
:10063000B180C280D3800E945A0F1B012C01C801D7
:10064000B7010E945A0F3B014C01C601B5010E943F
:100650005A0F5B016C0162E870E080E090E040E0DE
:1006600050E0910100E010E0730165010E94B605C1
:1006700028960FB6F894DEBF0FBECDBFCF91DF91A5
:100680001F910F91FF90EF90DF90CF90BF90AF90B0
:100690009F908F907F906F905F904F903F902F90A2
:1006A00008952F923F924F925F926F927F928F9216
:1006B0009F92AF92BF92CF92DF92EF92FF920F93F1
:1006C0001F9380E090E061E070E00E945A09609121
:1006D00048017091490180914A0190914B01E0E4F9
:1006E000F1E0E190F19001911191A080B180C28080
:1006F000D3800E945A0F1B012C01C801B7010E9430
:100700005A0F3B014C01C601B5010E945A0F5B0113
:100710006C0160E872E080E090E040E050E0910120
:1007200000E010E0730165010E94B6051F910F9172
:10073000FF90EF90DF90CF90BF90AF909F908F9001
:100740007F906F905F904F903F902F9008952F92E1
:100750003F924F925F926F927F928F929F92AF9251
:10076000BF92CF92DF92EF92FF920F931F93DF938E
:10077000CF9300D000D0CDB7DEB780E090E060E04E
:1007800070E00E945A0960914C0170914D01809176
:100790004E0190914F01E8E4F1E0E080F1800281A8
:1007A00013813897A190B190C190D1902080318071
:1007B000428053800E945A0F69837A838B839C8383
:1007C000C801B7010E945A0F7B018C01C601B50117
:1007D0000E945A0F3B014C01C201B1010E945A0F05
:1007E0005B016C016AEF72E080E090E049815A8120
:1007F000970100E010E0730165010E94B6050F90BB
:100800000F900F900F90CF91DF911F910F91FF905C
:10081000EF90DF90CF90BF90AF909F908F907F90A0
:100820006F905F904F903F902F9008952F923F923E
:100830004F925F926F927F928F929F92AF92BF92F0
:10084000CF92DF92EF92FF920F931F93DF93CF939C
:10085000CDB7DEB728970FB6F894DEBF0FBECDBF79
:1008600080E090E060E070E00E945A09ACE4B1E002
:1008700060914C0170914D0180914E0190914F011A
:10088000FD0112910291F290E290A080B180C280AD
:10089000D3801C976D907D908D909D902D913D9172
:1008A0004D915C9129833A834B835C830E945A0F5C
:1008B0006D837E838F839887C801B7010E945A0F8A
:1008C0001B012C01C601B5010E945A0F7B018C014E
:1008D000C401B3010E945A0F3B014C0169817A8126
:1008E0008B819C810E945A0F5B016C016AEF72E060
:1008F00080E090E04D815E81910187017301650187
:100900000E94B60528960FB6F894DEBF0FBECDBF85
:10091000CF91DF911F910F91FF90EF90DF90CF90DB
:10092000BF90AF909F908F907F906F905F904F900F
:100930003F902F900895CF93DF930E94630AC0E009
:10094000D0E020E030E040E051E40E94EE0E882349
:1009500014F4C1E0D0E0CE01DF91CF910895CF93A0
:10096000DF930E94510AC0E0D0E020E030E040E098
:1009700051E40E94EE0E882314F4C1E0D0E0CE01D1
:10098000DF91CF910895CF93DF930E943F0AC0E09B
:10099000D0E020E030E040E851E40E94EE0E8823F1
:1009A00014F4C1E0D0E0CE01DF91CF9108952F92F1
:1009B0003F924F925F926F927F928F929F92AF92EF
:1009C000BF92CF92DF92EF92FF920F931F9380918D
:1009D0005201909153010197D1F00E94630A6093F4
:1009E00058017093590180935A0190935B010E94C2
:1009F000510A60935401709355018093560190936E
:100A0000570181E090E090935301809352010E943E
:100A1000630A1B012C010E94510A3B014C012091E9
:100A200058013091590140915A0150915B01C20126
:100A3000B1010E94890E20E030E040E85FE30E94AF
:100A40003D10181624F4109251011092500120917B
:100A50005401309155014091560150915701C40104
:100A6000B3010E94890E20E030E040E85FE30E947D
:100A70003D10181624F41092510110925001C40137
:100A8000B301A20191010E94890E5B016C010091EA
:100A900050011091510120E030E040E450E40E9408
:100AA0003D10181674F0B801882777FD8095982FAF
:100AB0000E948D0F9B01AC01C601B5010E948610FA
:100AC0000FC02091500130915101B901660F771F7D
:100AD000620F731F882777FD8095982F0E948D0FD6
:100AE0007B018C01C601B50120E030E040E450EC10
:100AF0000E94EE0E8823A4F4209150013091510100
:100B0000B901660F771F620F731F709561957F4F54
:100B1000882777FD8095982F0E948D0F7B018C018F
:100B2000209258013092590140925A0150925B0133
:100B30006092540170925501809256019092570133
:100B4000C801B7010E945A0FCB011F910F91FF906E
:100B5000EF90DF90CF90BF90AF909F908F907F905D
:100B60006F905F904F903F902F9008952F923F92FB
:100B70004F925F926F927F928F929F92AF92BF92AD
:100B8000CF92DF92EF92FF920F931F93DF93CF9359
:100B9000CDB7DEB7AE970FB6F894DEBF0FBECDBFB0
:100BA00069877A878B879C873EA72DA71E870D872D
:100BB000D88ACF868091060190910701A091080103
:100BC000B09109018D839E83AF83B8871092100185
:100BD00010921101109212011092130180911001D4
:100BE00090911101A0911201B091130180932801FD
:100BF00090932901A0932A01B0932B01CA01AA273F
:100C000097FDA095BA2F898F9A8FAB8FBC8F9701D4
:100C1000442737FD4095542F2D8F3E8F4F8F58A37B
:100C20008DA59EA5AA2797FDA095BA2F89A39AA363
:100C3000ABA3BCA39601442737FD4095542F2DA3A9
:100C40003EA34FA358A7C801AA2797FDA095BA2F86
:100C500089A79AA7ABA7BCA705C1609106017091AF
:100C6000070180910801909109012D813E814F81FA
:100C70005885621B730B840B950B0E948B0F20E031
:100C800030E04AE754E40E94F20E9B01AC01C60139
:100C9000B5010E9486109B01AC01C401B3010E9402
:100CA0008A0E698B7A8B8B8B9C8B0E94D704298947
:100CB0003A894B895C8920934C0130934D014093D4
:100CC0004E0150934F01AA2797FDA095BA2FBC0162
:100CD000CD010E948D0F7B018C0169897A898B89F6
:100CE0009C89A80197010E94890E0E945A0FDC017D
:100CF000CB010E94AE09AA2797FDA095BA2FBC018F
:100D0000CD010E948D0F60931401709315018093A3
:100D100016019093170169897A898B899C89A801AA
:100D200097010E948A0E0E945A0FDC01CB010E949B
:100D3000AE09AA2797FDA095BA2FBC01CD010E944C
:100D40008D0F60932C0170932D0180932E01909351
:100D50002F016DA17EA18FA198A50E948D0F5B012F
:100D60006C0169A57AA58BA59CA50E948D0F3B01FE
:100D70004C016091100170911101809112019091CC
:100D800013010E948D0F6D8B7E8B8F8B988F6989DD
:100D90007A898B899C899B01AC010E9486107B011A
:100DA0008C01C601B501A60195010E948A0E9B0126
:100DB000AC01C801B7010E94F20E1B012C01C40155
:100DC000B301A40193010E9486107B018C01C6012E
:100DD000B50120E030E040E050EC0E9486109B011D
:100DE000AC01C801B7010E94F20E9B01AC01C20127
:100DF000B1010E948A0E9B01AC016D897E898F89A9
:100E0000988D0E948A0E7B018C0169857A858B857D
:100E10009C850E948D0F9B01AC01C801B7010E9407
:100E20003D1088234CF069897A898B899C890E94BE
:100E30005A0F7EA76DA75AC08091100190911101A1
:100E4000A0911201B091130129853A854B855C85EB
:100E500082179307A407B5070CF047C180EA9FE00B
:100E60000197F1F7698D7A8D8B8D9C8D0E948D0F86
:100E70003B014C016D8D7E8D8F8D98A10E948D0F51
:100E80005B016C016091060170910701809108017E
:100E9000909109012D813E814F815885621B730B12
:100EA000840B950B0E948B0F20E030E04AE754E45E
:100EB0000E94F20E9B01AC01C601B5010E94861092
:100EC0009B01AC01C401B3010E948A0E7B018C011D
:100ED00069A17AA18BA19CA10E948D0F9B01AC01FD
:100EE000C801B7010E94EE0E87FDB7CE4DA55EA5E5
:100EF000BA01882777FD8095982F0E948D0F1B01DE
:100F00002C01AF85B889BD01882777FD8095982F82
:100F10000E948D0F3B014C01ED85FE85BF018827A6
:100F200077FD8095982F0E948D0F69837A838B833C
:100F30009C83C201B101A20191010E9486107B0134
:100F40008C01C401B301A40193010E948A0E9B018C
:100F5000AC01C801B7010E94F20E5B016C0169810E
:100F60007A818B819C819B01AC010E9486107B0160
:100F70008C01C401B30120E030E040E050EC0E945D
:100F800086109B01AC01C801B7010E94F20E9B01C3
:100F9000AC01C601B5010E948A0E5B016C01609133
:100FA00010017091110180911201909113010E9422
:100FB0008D0FA60195010E948A0E7B018C01698527
:100FC0007A858B859C850E948D0F9B01AC01C801A1
:100FD000B7010E94EE0E87FDE2CFA0900601B0900F
:100FE0000701C0900801D090090156C06091060128
:100FF0007091070180910801909109016A197B099C
:101000008C099D090E948B0F20E030E04AE754ECE8
:101010000E94F20E9B01AC01C401B3010E94861034
:101020009B01AC01C201B1010E948A0E60934C0188
:1010300070934D0180934E0190934F010E945A0F7F
:101040007B018C01CB010E94AE09AA2797FDA095D8
:10105000BA2FBC01CD010E948D0F609314017093D3
:1010600015018093160190931701C7010E94AE09E4
:10107000AA2797FDA095BA2FBC01CD010E948D0F24
:1010800060932C0170932D0180932E0190932F017A
:1010900080EA9FE00197F1F76091060170910701E6
:1010A00080910801909109016A197B098C099D09B9
:1010B0000E948B0F20E030E04AE754EC0E94F20ED1
:1010C0009B01AC01C401B3010E9486109B01AC01DD
:1010D000C201B1010E948A0E29813A814B815C8153
:1010E0000E943D1018160CF481CFAE960FB6F894FE
:1010F000DEBF0FBECDBFCF91DF911F910F91FF904B
:10110000EF90DF90CF90BF90AF909F908F907F90A7
:101110006F905F904F903F902F9008958AB18E60AE
:101120008AB984B1836C84B988E08093810080930C
:1011300091001092890010928800109299001092EC
:10114000980082E080936F008093710010928B0072
:1011500010928A0010929B0010929A0078942E9A16
:101160000895892B11F02E9808952E9A0895FC0168
:10117000208181E090E002C0880F991F6A95E2F714
:10118000282B20839AE19A95F1F72081809582237C
:10119000808308951F920F920FB60F9211242F9300
:1011A0003F934F935F936F937F938F939F93AF93EF
:1011B000BF93EF93FF9385E290E067E00E94B7084A
:1011C0008091280190912901A0912A01B0912B01D1
:1011D0000196A11DB11D8093280190932901A09330
:1011E0002A01B0932B0160912C0170912D01809107
:1011F0002E0190912F010E945F0F709399006093D0
:101200009800FF91EF91BF91AF919F918F917F9146
:101210006F915F914F913F912F910F900FBE0F9063
:101220001F9018951F920F920FB60F9211242F93B3
:101230003F934F935F936F937F938F939F93AF935E
:10124000BF93EF93FF938BE290E061E00E94B708B9
:101250008091100190911101A0911201B0911301A0
:101260000196A11DB11D8093100190931101A093CF
:101270001201B093130160911401709115018091D6
:101280001601909117010E945F0F7093890060937F
:101290008800FF91EF91BF91AF919F918F917F91C6
:1012A0006F915F914F913F912F910F900FBE0F90D3
:1012B0001F901895892B11F0589801C0589A672BE8
:1012C00011F05E9A08955E980895CF93DF93EC0134
:1012D000688579858A859B8520E030E04FE753E477
:1012E0000E94EE0E18167CF0688579858A859B85AC
:1012F0000E945A0F80E090E0A0E0B0E088879987D4
:10130000AA87BB8710C0688579858A859B8520E080
:1013100030E04FE753E40E94890E688779878A8717
:101320009B876FEF70E0CB01DF91CF910895892B00
:1013300021F080918100836003C0809181008C7FC7
:1013400080938100672B21F080919100836003C01E
:10135000809191008C7F8093910008958A3091054F
:101360001CF428EA31E60BC09C01442737FD409568
:10137000542F60E970ED83E090E00E941C11C901D8
:10138000089582FF02C0769A01C0769881FF02C05C
:101390002D9A01C02D9880FF02C02C9A08952C9898
:1013A000089580E480937C0086E880937A008AB177
:1013B00080698AB93E9A249A259A6E9A0895877010
:1013C000806480937C0080917A00806480937A00AE
:1013D00080917A0084FFFCCF80917A0080618093B5
:1013E0007A002091780030917900C90108950E9417
:1013F000DF0920E030E08150924010F421E030E03D
:10140000C90108950E94DF090895CF92DF92EF92FB
:10141000FF920F931F937C01842FF701908101E0CD
:1014200010E002C0000F111F6A95E2F7902B908325
:1014300090E4C92E91E0D92EF6013197F1F70E9480
:10144000DF09F7012081009502230083F60131971F
:10145000F1F71F910F91FF90EF90DF90CF900895DB
:101460000E94461022EA34EB40EC50EC0E948610B9
:1014700021E23AE24EE252E40E948A0E08958BE2A3
:1014800090E064E045E050E00E94050AAA2797FD3D
:10149000A095BA2FBC01CD010E948D0F0E94300A89
:1014A000089588E290E066E044E050E00E94050A7A
:1014B000AA2797FDA095BA2FBC01CD010E948D0FE0
:1014C0000E94300A08958BE290E067E046E050E029
:1014D0000E94050AAA2797FDA095BA2FBC01CD014D
:1014E0000E948D0F0E94300A08951092CD0087E669
:1014F0008093CC0088E18093C90086E08093CA0085
:1015000008958091C80087FFFCCF8091CE00089598
:10151000982F8091C80085FFFCCF9093CE0008954E
:10152000FC0107C08091C80085FFFCCF9093CE00DE
:10153000319690819923B1F708950E94900A0895F9
:101540000F931F932DB73EB7285030400FB6F89435
:101550003EBF0FBE2DBFEDB7FEB731960CE511E0D3
:10156000ADB7BEB712961C930E93119720E031E0F1
:101570003383228364837583868397830E94AA12B0
:101580002DB73EB7285F3F4F0FB6F8943EBF0FBE52
:101590002DBFC8010E94900A1F910F9108950F93CB
:1015A0001F932DB73EB7285030400FB6F8943EBF7A
:1015B0000FBE2DBFEDB7FEB731960CE511E0ADB70C
:1015C000BEB712961C930E93119720E031E033833F
:1015D000228364837583868397830E94AA122DB722
:1015E0003EB7285F3F4F0FB6F8943EBF0FBE2DBFEA
:1015F000C8010E94900A83E091E00E94900A1F9126
:101600000F910895A1E1B0E0E8E0FBE00C94371100
:101610003C017F876E876A01FC01178216828381F5
:1016200081FD03C06FEF7FEF6FC39E012F5F3F4FC0
:10163000398B288BF3012381EE85FF8523FD85916E
:1016400023FF8191FF87EE87882309F45AC38532EF
:1016500051F4EE85FF8523FD859123FF8191FF875E
:10166000EE87853229F490E0B3010E947E12E2CF2A
:10167000982F10E0882499241032B0F49B3269F03E
:101680009C3228F4903251F0933271F40BC09D32A9
:1016900039F0903349F4116028C01260146025C0FD
:1016A000186023C0106121C017FD2AC0892F805304
:1016B0008A3078F416FF06C0FAE09F9E902C112421
:1016C000980E13C03AE0839E802C1124880E10627D
:1016D0000CC09E3221F416FD14C3106406C09C3663
:1016E00011F4106802C0983659F4EE85FF8523FD89
:1016F000959123FF9191FF87EE87992309F0BCCF45
:10170000892F8554833020F4812F8061905E07C03B
:10171000892F8556833008F09FC1812F8F7E86FDEB
:1017200002C076E0972E6FE3F62EF822953619F474
:10173000F0E4FF2A07C0963619F420E8F22A02C026
:1017400091109A94F7FE0AC03BE3391518F45CE354
:10175000B52E02C0B92CB39427E009C047E0491563
:1017600020F4BB2447E0942EF7CF292DBB24C601DB
:1017700004969D878C87F6016081718182819381B7
:10178000AE014F5F5F4F0B2D0E9490116C010981DC
:10179000202E332400FF04C003FD02C01DE209C057
:1017A000F1FE02C01BE205C0F2FC02C010E001C065
:1017B00010E2C1018C709070892BB9F1112311F4E2
:1017C00083E001C084E0881510F088240AC0881ADC
:1017D000F3FC07C080E290E0B3010E947E128A947D
:1017E000C9F7112329F0812F90E0B3010E947E12E6
:1017F00023FE03C006E011E00EC00AE011E00BC0BA
:10180000E114F10409F0805290E0B3010E947E12CD
:101810000F5F1F4F05C0EF2CFF24F0E1EF22FF24E4
:10182000F8018491882361F714C1F7FE12C0BC0C43
:1018300024FE04C08A81813309F4BA941B141CF07D
:10184000BB24B3942DC0F8E0FB1550F538E0B32E5F
:1018500027C0F6FC25C0892D90E08C159D054CF025
:101860002CEFC2162FEFD20624F030E8F32A01C085
:101870009A94992049F0E2E0F0E0EC0FFD1FE90DA9
:10188000F11D80818033A1F3F7FE0AC0B92CB39417
:10189000892D90E0C816D90614F0992401C09C182F
:1018A000F7FC03C025E030E009C01C141D041CF047
:1018B00021E030E003C096012F5F3F4F112311F06C
:1018C0002F5F3F4F992029F0892D90E00196280F36
:1018D000391F882D90E02817390714F0882401C09B
:1018E000821A4F2C5524C20189709070892B39F0CF
:1018F00008C080E290E0B3010E947E128A948820A2
:10190000C1F7112329F0812F90E0B3010E947E12CC
:1019100043FE07C008C080E390E0B3010E947E123E
:101920008A948820C1F7F7FE46C08601D7FE02C020
:1019300000E010E076010894E11CF11CE01AF10AC5
:1019400041E050E04C0F5D1FE40EF51E26014B18E0
:101950005108892D90E0AA24BB24A81AB90A5FEF88
:101960000F3F150729F48EE290E0B3010E947E122A
:10197000C016D10634F0401651061CF4F7018081E0
:1019800001C080E3015010400894E11CF11C0A15CD
:101990001B052CF090E0B3010E947E12E0CF0C15E5
:1019A0001D0539F49A81963318F4953311F424FE09
:1019B00081E390E04BC08A81813309F00F7E90E093
:1019C000B3010E947E129920A1F08EE290E0B30153
:1019D0000E947E1212E0E1E0F0E0EC0FFD1FE10F4B
:1019E000F11D1F5F808190E0B3010E947E129A94E6
:1019F00091F744FC03C085E690E002C085E490E0E6
:101A0000B3010E947E12D7FC05C0C114D10441F479
:101A100004FF06C0D094C194D108D3948DE201C0D4
:101A20008BE290E0B3010E947E1280E305C08F5FDD
:101A300026EF3FEFC20ED31E3AE0C316D104BCF727
:101A400090E0B3010E947E12C601C096B3010E94CD
:101A50007E12CC84DD8452C1933631F0933799F0F5
:101A6000933509F059C023C0F601808189835E0156
:101A70000894A11CB11C22E030E0C20ED31E21E06C
:101A8000E22EF12C12C0F601A080B18016FD03C039
:101A90006FEF7FEF02C0692D70E022E030E0C20EF0
:101AA000D31EC5010E9473127C011F7713C0F6017B
:101AB000A080B18016FD03C06FEF7FEF02C0692DDB
:101AC00070E022E030E0C20ED31EC5010E94681211
:101AD0007C01106813FF07C01BC080E290E0B301D7
:101AE0000E947E128A94882D90E0E816F906A8F3E9
:101AF0000FC0F50117FD859117FF81915F0190E0FF
:101B0000B3010E947E1281108A940894E108F108C2
:101B1000E114F10471F7F2C0943611F0993689F5A9
:101B200017FF08C0F601208131814281538184E092
:101B300090E00AC0F601808191819C01442737FD25
:101B40004095542F82E090E0C80ED91E9FE6F92EF2
:101B5000F12257FF09C050954095309521953F4F90
:101B60004F4F5F4F90E8F92ACA01B901AE014F5FAC
:101B70005F4F2AE030E00E94CE12E82EE889EE1A8C
:101B800041C0953721F41F7E2AE030E01CC0197F48
:101B90009F3661F0903720F4983509F0B2C00FC03D
:101BA000903739F0983709F0ACC004C028E030E035
:101BB0000AC0106114FD146020E130E004C014FD7F
:101BC000166020E132E017FF08C0F60160817181E4
:101BD0008281938144E050E008C0F60180819181C8
:101BE000BC0180E090E042E050E0C40ED51EAE01A2
:101BF0004F5F5F4F0E94CE12E82E5889E51A8FE79B
:101C0000F82EF122F6FE0BC08EEFF822E91438F41C
:101C1000F4FE07C0F2FC05C09FEEF92202C01E2DA3
:101C200001C0192DF4FE0DC0FE01EE0DF11D8081E5
:101C3000803319F4E9EEFE2208C01F5FF2FE05C0F2
:101C400003C08F2D867809F01F5F0F2DF3FC14C0A1
:101C5000F0FE0FC0181510F09E2C0BC09E2C980C97
:101C6000911A182D06C080E290E0B3010E947E1206
:101C70001F5F1815C0F304C0181510F4811A01C0B5
:101C8000882404FF0FC080E390E0B3010E947E121D
:101C900002FF1DC001FD03C088E790E00EC088E58B
:101CA00090E00BC0802F867891F001FF02C08BE29C
:101CB00001C080E2F7FC8DE290E0B3010E947E1249
:101CC00006C080E390E0B3010E947E129A94E9146A
:101CD000C0F3EA94E1E0F0E0EC0FFD1FEE0DF11D22
:101CE000808190E0B3010E947E12EE2091F706C041
:101CF00080E290E0B3010E947E128A948820C1F7AE
:101D000099CCF30166817781CB016196E2E10C9475
:101D100053115058BB27AA270ED075C166D130F099
:101D20006BD120F031F49F3F11F41EF45BC10EF42F
:101D3000E095E7FB51C1E92F77D180F3BA1762072D
:101D400073078407950718F071F49EF58FC10EF4A0
:101D5000E0950B2EBA2FA02D0B01B90190010C01BB
:101D6000CA01A0011124FF27591B99F0593F50F4D3
:101D7000503E68F11A16F040A22F232F342F44272B
:101D8000585FF3CF469537952795A795F040539523
:101D9000C9F77EF41F16BA0B620B730B840BBAF0F3
:101DA0009150A1F0FF0FBB1F661F771F881FC2F75E
:101DB0000EC0BA0F621F731F841F48F48795779572
:101DC0006795B795F7959E3F08F0B3CF9395880F29
:101DD00008F09927EE0F979587950895D9D008F4C4
:101DE00081E008950CD00FC107D140F0FED030F053
:101DF00021F45F3F19F0F0C0511139C1F3C014D183
:101E000098F39923C9F35523B1F3951B550BBB27C1
:101E1000AA2762177307840738F09F5F5F4F220F6E
:101E2000331F441FAA1FA9F333D00E2E3AF0E0E867
:101E300030D091505040E695001CCAF729D0FE2FB3
:101E400027D0660F771F881FBB1F26173707480745
:101E5000AB07B0E809F0BB0B802DBF01FF279358FB
:101E60005F4F2AF09E3F510568F0B6C000C15F3F4A
:101E7000ECF3983EDCF3869577956795B795F795E3
:101E80009F5FC9F7880F911D9695879597F90895DB
:101E9000E1E0660F771F881FBB1F62177307840777
:101EA000BA0720F0621B730B840BBA0BEE1F88F786
:101EB000E095089504D06894B111D9C00895BCD0BC
:101EC00088F09F5790F0B92F9927B751A0F0D1F023
:101ED000660F771F881F991F1AF0BA95C9F712C0AD
:101EE000B13081F0C3D0B1E00895C0C0672F782F22
:101EF0008827B85F39F0B93FCCF386957795679519
:101F0000B395D9F73EF490958095709561957F4F84
:101F10008F4F9F4F0895E89409C097FB3EF490952A
:101F20008095709561957F4F8F4F9F4F9923A9F0B2
:101F3000F92F96E9BB279395F69587957795679541
:101F4000B795F111F8CFFAF4BB0F11F460FF1BC085
:101F50006F5F7F4F8F4F9F4F16C0882311F096E918
:101F600011C0772321F09EE8872F762F05C06623C6
:101F700071F096E8862F70E060E02AF09A95660F7F
:101F8000771F881FDAF7880F9695879597F9089538
:101F9000990F0008550FAA0BE0E8FEEF161617067A
:101FA000E807F907C0F012161306E407F50798F0E2
:101FB000621B730B840B950B39F40A2661F0232BFB
:101FC000242B252B21F408950A2609F4A140A69577
:101FD0008FEF811D811D089597F99F6780E870E05C
:101FE00060E008959FEF80EC089500240A9416168F
:101FF000170618060906089500240A9412161306F7
:10200000140605060895092E0394000C11F4882384
:1020100052F0BB0F40F4BF2B11F460FF04C06F5FA0
:102020007F4F8F4F9F4F089557FD9058440F551F76
:1020300059F05F3F71F04795880F97FB991F61F04A
:102040009F3F79F087950895121613061406551FC1
:10205000F2CF4695F1DF08C0161617061806991F2D
:10206000F1CF86957105610508940895E894BB2722
:1020700066277727CB0197F908958ADF08F48FEF59
:1020800008950EF0A6C0AECF6894A6CFD5DFC8F3F2
:102090009923D1F3C6F3DF93CF931F930F93FF924E
:1020A000C92FDD2788232AF02197660F771F881F05
:1020B000DAF720E030E040E85FEB9FE3883920F07A
:1020C000803E30F021968F7725DEECEAF0E003C009
:1020D00021DEE9EDF0E08BD08B01BE01EC01FB2E9F
:1020E0006F5771097595771F880B990B16DF28E1DB
:1020F00032E741E35FE316D0AF2D9801AE01FF90C8
:102100000F911F91CF91DF9116DE7DCF0BD07BCF4A
:102110006CDF28F071DF18F0952309F05DCF62CFF6
:102120001124A5CF81DFA0F3959FD1F3950F50E047
:10213000551F629FF001729FBB27F00DB11D639F79
:10214000AA27F00DB11DAA1F649F6627B00DA11D1F
:10215000661F829F2227B00DA11D621F739FB00DC5
:10216000A11D621F839FA00D611D221F749F332735
:10217000A00D611D231F849F600D211D822F762FCE
:102180006A2F11249F5750408AF0E1F088234AF0CB
:10219000EE0FFF1FBB1F661F771F881F9150504017
:1021A000A9F79E3F510570F017CF61CF5F3FECF369
:1021B000983EDCF3869577956795B795F795E79503
:1021C0009F5FC1F7FE2B880F911D9695879597F914
:1021D00008959F3F31F0915020F48795779567954A
:1021E000B795880F911D9695879597F90895DF9378
:1021F000CF931F930F93FF92EF92DF927B018C019D
:10220000689405C0DA2EEF018DDFFE01E894A591F8
:102210002591359145915591AEF3EF018CDDFE018D
:102220009701A801DA9479F7DF90EF90FF900F9172
:102230001F91CF91DF91089597FB092E05260ED0AF
:1022400057FD04D04BD00AD0001C38F4509540956F
:10225000309521953F4F4F4F5F4F0895F6F790957A
:102260008095709561957F4F8F4F9F4F08952F9266
:102270003F924F925F926F927F928F929F92AF9216
:10228000BF92CF92DF92EF92FF920F931F93CF9363
:10229000DF93CDB7DEB7CA1BDB0B0FB6F894DEBFFA
:1022A0000FBECDBF09942A88398848885F846E8420
:1022B0007D848C849B84AA84B984C884DF80EE806A
:1022C000FD800C811B81AA81B981CE0FD11D0FB673
:1022D000F894DEBF0FBECDBFED010895A1E21A2E26
:1022E000AA1BBB1BFD010DC0AA1FBB1FEE1FFF1FBA
:1022F000A217B307E407F50720F0A21BB30BE40B0A
:10230000F50B661F771F881F991F1A9469F7609550
:102310007095809590959B01AC01BD01CF0108950A
:10232000283008F027E03327DA01990F311D87FDA7
:10233000916000966105710539F432602E5F3D931E
:1023400030E32A95E1F708959F3F30F0803871051A
:10235000610509F03C5F3C5F3D93913008F0806877
:10236000911DDF93CF931F930F93FF92EF92192F3D
:10237000987F9695E92F96959695E90FFF27E8594E
:10238000FE4F99273327EE24FF24A701E70105908C
:102390000894079428F4360FE71EF81E491F511DB4
:1023A000660F771F881F991F0694A1F70590079461
:1023B00028F4E70EF81E491F561FC11D770F881F0E
:1023C000991F661F0694A1F70590079428F4F80E4C
:1023D000491F561FC71FD11D880F991F661F771FE2
:1023E0000694A1F70590079420F4490F561FC71FC4
:1023F000D81F990F661F771F881F0694A9F784912D
:102400001095177041F0D695C79557954795F79455
:10241000E7941A95C1F7EEE0F1E0689415901591F4
:1024200035916591959105907FE27395E118F10AD8
:10243000430B560BC90BD009C0F7E10CF11E431F2B
:10244000561FC91FD01D7EF4703311F48A95E6CF54
:10245000E894015030F0080F0AF40027021708F43E
:10246000202F2395022F7A3328F079E37D932A9544
:10247000E9F710C07D932A9589F60694979567959C
:10248000379517951794E118F10A430B560BC90BB2
:10249000D00998F023957E9173957A3308F070E314
:1024A0007C932013B8F77E9170617D9330F0839513
:1024B00071E37D9370E32A95E1F71124EF90FF908B
:1024C0000F911F91CF91DF91992787FD90950895E6
:1024D000FC010590615070400110D8F780959095EF
:1024E0008E0F9F1F0895FC016150704001900110F4
:1024F000D8F7809590958E0F9F1F08950F931F9387
:10250000CF93DF938C01EB018B8181FF1BC082FF96
:102510000DC02E813F818C819D812817390764F47D
:10252000E881F9810193F983E88306C0E885F9859C
:10253000802F0995892B31F48E819F8101969F838D
:102540008E8302C00FEF1FEFC801DF91CF911F9163
:102550000F910895AEE0B0E0E0EBF2E10C9445118C
:102560000D891E8986E08C831A8309838FEF9FE78C
:102570009E838D839E01275E3F4FCE0101966F891A
:10258000788DA9010E94020B2F813885020F131F3D
:10259000F80110822E96E4E00C946111FA01AA274A
:1025A000283051F1203181F1E8946F936E7F6E5F96
:1025B0007F4F8F4F9F4FAF4FB1E03ED0B4E03CD044
:1025C000670F781F891F9A1FA11D680F791F8A1F27
:1025D000911DA11D6A0F711D811D911DA11D20D08E
:1025E00009F468943F912AE0269F11243019305D48
:1025F0003193DEF6CF010895462F4770405D419339
:10260000B3E00FD0C9F7F6CF462F4F70405D4A3385
:1026100018F0495D31FD4052419302D0A9F7EACF4D
:10262000B4E0A6959795879577956795BA95C9F77C
:1026300000976105710508959B01AC010A2E06946F
:102640005795479537952795BA95C9F7620F731F28
:0C265000841F951FA01D0895F894FFCF73
:06265C002566000A0D00D6
:00000001FF
